:020000040800F2
:100000000004002045010008F1030008B5030008C2
:10001000ED03000891020008ED0600080000000052
:1000200000000000000000000000000015040008AF
:100030009502000800000000F30300080105000815
:100040005F0100085F0100085F0100085F01000810
:100050005F0100085F0100085F0100085F01000800
:100060005F0100085F0100085F0100085F010008F0
:100070005F0100085F0100085F0100085F010008E0
:100080005F0100085F0100085F0100085F010008D0
:100090005F0100085F0100085F0100085F010008C0
:1000A0005F0100085F0100085F0100085F010008B0
:1000B0005F0100085F0100085F0100085F010008A0
:1000C0005F0100085F0100085F0100085F01000890
:1000D0005F0100085F0100085F0100085F01000880
:1000E0005F0100085F0100085F0100085F01000870
:1000F0005F0100085F0100085F0100085F01000860
:100100005F0100085F0100085F0100085F0100084F
:100110005F0100085F010008650500085F01000835
:100120005F0100085F0100085F0100085F0100082F
:10013000DFF80CD000F018F8004800470F0700085F
:10014000000400200648804706480047FEE7FEE717
:10015000FEE7FEE7FEE7FEE7FEE7FEE7FEE7FEE777
:100160000505000831010008064C074D06E0E0686F
:1001700040F0010394E8070098471034AC42F6D3EE
:10018000FFF7DAFF1C0700082C07000808B501215B
:10019000102000F02FF918208DF8030003208DF8AF
:1001A00002004020ADF800006946124800F073F8E4
:1001B0000121042000F01EF98020ADF80000182075
:1001C0008DF8030069460C4800F065F80121042011
:1001D00000F010F94020ADF8000018208DF8030061
:1001E0006946054800F057F84021034800F0DEF862
:1001F00008BD0000001001400008014010B5FFF7E5
:10020000C5FF00F001F810BD00B587B0012148031B
:1002100000F0F0F80020ADF81600ADF8120043F63B
:100220007F60ADF814000820ADF8100000208DF8B4
:10023000180004A9154800F007FA4FF4FA50ADF879
:1002400006004FF48070ADF80C006020ADF800009F
:100250000020ADF80E00ADF80A00ADF80800ADF8CA
:1002600004000120ADF802006946084800F096F944
:100270000821064800F0DEF90121044800F073F976
:100280000121024800F07BF907B000BD00340140B5
:1002900000BFFEE770472DE9F04102460025002629
:1002A000002000230024002791F803C00CF00F0564
:1002B00091F803C00CF0100CBCF1000F03D091F8C2
:1002C00002C04CEA050591F800C0BCF1000F31D026
:1002D000146800202BE04FF0010C0CFA00F3B1F889
:1002E00000C00CEA03069E4220D183004FF00F0CA1
:1002F0000CFA03F7BC4305FA03FC4CEA040491F83A
:1003000003C0BCF1280F06D14FF0010C0CFA00FC21
:10031000C2F814C00AE091F803C0BCF1480F05D13F
:100320004FF0010C0CFA00FCC2F810C0401C082869
:10033000D1D31460B1F800C0BCF1FF0F34DD5468B4
:1003400000202EE000F1080C4FF0010808FA0CF331
:10035000B1F800C00CEA03069E4221D183004FF0A1
:100360000F0C0CFA03F7BC4305FA03FC4CEA040437
:1003700091F803C0BCF1280F05D100F1080C08FA70
:100380000CF8C2F8148091F803C0BCF1480F07D1F3
:1003900000F1080C4FF0010808FA0CF8C2F81080C0
:1003A000401C0828CED35460BDE8F08141617047FD
:1003B000C160704700BFFEE708B50121082000F0CA
:1003C00019F810208DF803002320ADF80000032059
:1003D0008DF8020069460448FFF75DFF4FF6FF7194
:1003E0000148FFF7E5FF08BD000C014000BFFEE734
:1003F0007047704729B1064A92690243044B9A61DB
:1004000004E0034A92698243014B9A6170470000FD
:1004100000100240704710B500F002F810BD000057
:100420000CB50020019000903348006840F4803003
:100430003149086000BF3048006800F40030009087
:100440000198401C0190009818B90198B0F5A06F70
:10045000F1D12948006800F4003010B1012000906B
:1004600001E0002000900098012843D12348006853
:1004700040F01000214908600846006820F00300A1
:1004800008600846006840F0020008601A484068AA
:10049000194948600846406848600846406840F48A
:1004A000806048600846406820F47C104860084638
:1004B000406840F4E81048600846006840F08070EA
:1004C000086000BF0C48006800F000700028F9D0F8
:1004D0000948406820F00300074948600846406822
:1004E00040F00200486000BF0348406800F00C0084
:1004F0000828F9D10CBD0000001002400020024085
:100500007047000010B51348006840F00100114921
:10051000086008464068104908400E49486008468F
:1005200000680E4908400B4908600846006820F43E
:10053000802008600846406820F4FE0048604FF4C0
:100540001F008860FFF767FF4FF0006004490860F4
:1005500010BD0000001002400000FFF8FFFFF6FE93
:1005600008ED00E0704721B1028842F001020280EC
:1005700004E002884FF6FE731A400280704731B1E2
:10058000B0F8442042F40042A0F8442005E0B0F85E
:100590004420C2F30E02A0F84420704770B5002436
:1005A00000220023058C4FF6FE7635400584028C30
:1005B0008388048B4FF68F752C40B51E2C400D8818
:1005C0002C43751E2A400D892A434D882A43144D19
:1005D000A8420BD0134DA84208D0134DA84205D015
:1005E000124DA84202D0124DA84213D14FF6F77512
:1005F0002A404D892A434FF6FB752A408D882A43AD
:100600004FF6FF652B404FF6FF552B408D892B434E
:10061000CD892B4383800483CD888586028470BD79
:10062000002C0140003401400040014000440140E2
:10063000004801400A460021018B4FF6F77319402C
:100640001143018370470000002202881D4B98422D
:100650000ED01D4B98420BD0B0F1804F08D01B4BF1
:10066000984205D01A4B984202D01A4B984204D1B6
:100670004FF68F731A404B881A43174B984207D096
:10068000164B984204D04FF6FF431A40CB881A43CA
:1006900002808B8883850B8803850A4B98420BD098
:1006A000094B984208D00E4B984205D00D4B98420A
:1006B00002D00D4B984201D10B7A0386012383822D
:1006C00070470000002C014000340140000400404D
:1006D00000080040000C00400010004000140040E2
:1006E00000400140004401400048014000BFFEE7D7
:1006F00002E008C8121F08C1002AFAD170477047EB
:10070000002001E001C1121F002AFBD17047FFF752
:1007100053FEFFF773FD00BFFEE700002C07000843
:0C0720000000002000040000000700089A
:0400000508000131BD
:00000001FF
