:020000040800F2
:10000000400400204501000811040008D503000841
:100010000D040008B1010008A5050008000000005B
:10002000000000000000000000000000550400086F
:10003000B102000800000000130400084105000898
:100040005F0100085F0100085F0100085F01000810
:100050005F0100085F0100085F0100085F01000800
:100060005F0100085F0100085F0100085F010008F0
:100070005F0100085F0100085F0100085F010008E0
:100080005F0100085F0100085F0100085F010008D0
:100090005F0100085F0100085F0100085F010008C0
:1000A0005F0100085F0100085F0100085F010008B0
:1000B0005F0100085F0100085F0100085F010008A0
:1000C0005F0100085F0100085F0100085F01000890
:1000D0005F0100085F0100085F0100085F01000880
:1000E0005F0100085F0100085F0100085F01000870
:1000F0005F0100085F0100085F0100085F01000860
:100100005F0100085F0100085F0100085F0100084F
:100110005F0100085F0100085F0100085F0100083F
:100120005F0100085F0100085F0100085F0100082F
:10013000DFF80CD000F018F800480047D50500089B
:10014000400400200648804706480047FEE7FEE7D7
:10015000FEE7FEE7FEE7FEE7FEE7FEE7FEE7FEE777
:100160004505000831010008064C074D06E0E0682F
:1001700040F0010394E8070098471034AC42F6D3EE
:10018000FFF7DAFF94060008A406000810B503463E
:1001900007E018880C88A04201D0002010BD9B1CED
:1001A000891C101EA2F10104A2B2F2D10120F5E7D0
:1001B00000BFFEE700F0805111B10349086001E083
:1001C00002494860704700000404024000000240F9
:1001D00021B1026842F00102026004E002684FF6B9
:1001E000FE731A400260704700B58BB001210846CB
:1001F00000F010F911480090114801900020029081
:10020000202003904020049080200590400006901C
:1002100080000790002008904FF4805009908000E3
:100220000A906946074800F025F82020FFF7C2FF32
:1002300001210448FFF7CCFF0BB000BD54060008B5
:10024000000000201C00024001460020002201F0B6
:10025000805313B1054B1A6801E0054B1A6802EA96
:1002600001030BB1012000E00020704700040240B0
:100270000000024010B50022026847F6F0739A436E
:100280000C6A8B6823430C6923434C6923438C69B4
:100290002343CC6923434C6A23438C6A23431A4388
:1002A0000260CB6843600B6883604B68C36010BD1D
:1002B00070472DE9F041024600250026002000236A
:1002C0000024002791F803C00CF00F0591F803C03B
:1002D0000CF0100CBCF1000F03D091F802C04CEAF6
:1002E000050591F800C0BCF1000F31D01468002062
:1002F0002BE04FF0010C0CFA00F3B1F800C00CEA4F
:1003000003069E4220D183004FF00F0C0CFA03F736
:10031000BC4305FA03FC4CEA040491F803C0BCF1A9
:10032000280F06D14FF0010C0CFA00FCC2F814C0E3
:100330000AE091F803C0BCF1480F05D14FF0010C61
:100340000CFA00FCC2F810C0401C0828D1D314607D
:10035000B1F800C0BCF1FF0F34DD546800202EE07E
:1003600000F1080C4FF0010808FA0CF3B1F800C0D6
:100370000CEA03069E4221D183004FF00F0C0CFAC9
:1003800003F7BC4305FA03FC4CEA040491F803C0EC
:10039000BCF1280F05D100F1080C08FA0CF8C2F8DE
:1003A000148091F803C0BCF1480F07D100F1080C8C
:1003B0004FF0010808FA0CF8C2F81080401C082819
:1003C000CED35460BDE8F081416170470161704750
:1003D000C160704700BFFEE708B50121082000F0AA
:1003E00029F810208DF803002320ADF80000032029
:1003F0008DF8020069460448FFF75BFF4FF6FF7176
:100400000148FFF7E5FF08BD000C014000BFFEE713
:100410007047704729B1064A52690243044B5A613A
:1004200004E0034A52698243014B5A61704700005D
:100430000010024029B1064A92690243044B9A61B6
:1004400004E0034A92698243014B9A6170470000BD
:1004500000100240704710B500F002F810BD000017
:100460000CB50020019000903348006840F48030C3
:100470003149086000BF3048006800F40030009047
:100480000198401C0190009818B90198B0F5A06F30
:10049000F1D12948006800F4003010B1012000902B
:1004A00001E0002000900098012843D12348006813
:1004B00040F01000214908600846006820F0030061
:1004C00008600846006840F0020008601A4840686A
:1004D000194948600846406848600846406840F44A
:1004E000806048600846406820F47C1048600846F8
:1004F000406840F4E81048600846006840F08070AA
:10050000086000BF0C48006800F000700028F9D0B7
:100510000948406820F003000749486008464068E1
:1005200040F00200486000BF0348406800F00C0043
:100530000828F9D10CBD0000001002400020024044
:100540007047000010B51348006840F001001149E1
:10055000086008464068104908400E49486008464F
:1005600000680E4908400B4908600846006820F4FE
:10057000802008600846406820F4FE0048604FF480
:100580001F008860FFF767FF4FF0006004490860B4
:1005900010BD0000001002400000FFF8FFFFF6FE53
:1005A00008ED00E000BFFEE702E008C8121F08C126
:1005B000002AFAD170477047002001E001C1121FE4
:1005C000002AFBD1704700BF011EA0F10100FBD142
:1005D00070470000FFF700FFFFF706FE01211948F2
:1005E000FFF7F2FE20211748FFF7EEFE1648FFF74F
:1005F000EAFF00BF2020FFF727FE0028FAD02022C4
:1006000012491348FFF7C2FD01280CD101210D4802
:10061000FFF7DAFE20210B48FFF7D8FE0221094838
:10062000FFF7D4FE0BE001210648FFF7CFFE2021A3
:100630000448FFF7C9FE02210248FFF7C7FE00BFCA
:10064000FEE70000000C0140FFFF2F00000000202B
:1006500054060008040308050C09100F141118159E
:100660001C19201F222128272C2B302D34333837FA
:100670003C39403F424148454C49504D54515857F0
:100680005C5B605D646168676C69706F74717877DA
:100690007C79807FA4060008000000204004000050
:0406A000B805000891
:0400000508000131BD
:00000001FF
