:020000040800F2
:1000000010040020450100083904000831040008EC
:10001000350400088D010008C10800080000000038
:100020000000000000000000000000007D04000847
:1000300091010008000000003B0400086905000869
:100040005F0100085F0100085F0100085F01000810
:100050005F0100085F0100085F0100085F01000800
:100060005F0100085F0100085F0100085F010008F0
:100070005F0100085F0100085F0100085F010008E0
:100080005F0100085F0100085F0100085F010008D0
:100090005F0100085F0100085F0100085F010008C0
:1000A0005F0100085F0100085F0100085F010008B0
:1000B0005F0100085F0100085F0100085F010008A0
:1000C0005F0100085F0100085F0100085F01000890
:1000D0005F0100085F0100085F0100085F01000880
:1000E0005F0100085F0100085F0100085F01000870
:1000F0005F0100085F0100085F0100085F01000860
:100100005F0100085F0100085F0100085F0100084F
:100110005F0100085F010008CD0500085F010008CD
:100120005F0100085F0100085F0100085F0100082F
:10013000DFF80CD000F018F800480047F10800087C
:10014000100400200648804706480047FEE7FEE707
:10015000FEE7FEE7FEE7FEE7FEE7FEE7FEE7FEE777
:100160006D05000831010008064C074D06E0E06807
:1001700040F0010394E8070098471034AC42F6D3EE
:10018000FFF7DAFF540900086409000800BFFEE722
:10019000704700000EB50121022000F04FF940F237
:1001A000CF70ADF80000FF20ADF804000020ADF8DE
:1001B0000600ADF802008DF8080001211B4800F090
:1001C00012FA6946194800F029FB60201849088096
:1001D0004FF4807088810020C881022008810020AF
:1001E0008880012048800020C880104800F010FA64
:1001F00008210E4800F05EFA0D490C4800F068FA3C
:1002000008210A4800F0B4FA0949084800F0BAFA8F
:100210000821064800F0F4FA0121044800F0D7F95B
:100220000121024800F0E2F90EBD00000004004088
:100230000000002008B50121092000F00FF901217C
:100240000F4800F0ADF82020ADF8000003208DF835
:10025000020018208DF8030069460A4800F014F8DF
:100260000120ADF800006946064800F00DF80220B4
:10027000ADF800006946034800F006F808BD00002C
:1002800000081A00000C01402DE9F041024600254B
:100290000026002000230024002791F803C00CF062
:1002A0000F0591F803C00CF0100CBCF1000F03D047
:1002B00091F802C04CEA050591F800C0BCF1000FAE
:1002C00031D0146800202BE04FF0010C0CFA00F341
:1002D000B1F800C00CEA03069E4220D183004FF023
:1002E0000F0C0CFA03F7BC4305FA03FC4CEA0404B8
:1002F00091F803C0BCF1280F06D14FF0010C0CFAA5
:1003000000FCC2F814C00AE091F803C0BCF1480F29
:1003100005D14FF0010C0CFA00FCC2F810C0401CD3
:100320000828D1D31460B1F800C0BCF1FF0F34DD50
:10033000546800202EE000F1080C4FF0010808FA84
:100340000CF3B1F800C00CEA03069E4221D18300F1
:100350004FF00F0C0CFA03F7BC4305FA03FC4CEA10
:10036000040491F803C0BCF1280F05D100F1080C7A
:1003700008FA0CF8C2F8148091F803C0BCF1480FD9
:1003800007D100F1080C4FF0010808FA0CF8C2F888
:100390001080401C0828CED35460BDE8F0810000D6
:1003A000F0B50A46002300240021002500F0004695
:1003B000B6F1004F02D11D4EF16901E01B4E71688C
:1003C000C0F3034583B200F44016B6F5401F08D1D0
:1003D00021F07061154E766826F07066134F7E60CE
:1003E00012E000F48016B6F5801F06D1032606FA47
:1003F00005F4A14341F0706106E0460D360103FAB1
:1004000006F6B14341F0706122B1460D360103FAA0
:1004100006F6314300F00046B6F1004F02D1034E1C
:10042000F16101E0014E7160F0BD0000000001408B
:1004300000BFFEE700BFFEE77047704729B1064ADC
:10044000D2690243044BDA6104E0034AD269824371
:10045000014BDA61704700000010024029B1064AE2
:1004600092690243044B9A6104E0034A9269824311
:10047000014B9A617047000000100240704710B5B0
:1004800000F002F810BD00000CB5002001900090B3
:100490003348006840F480303149086000BF30487C
:1004A000006800F4003000900198401C0190009812
:1004B00018B90198B0F5A06FF1D12948006800F48F
:1004C000003010B10120009001E000200090009861
:1004D000012843D12348006840F0100021490860FA
:1004E0000846006820F0030008600846006840F0F5
:1004F000020008601A484068194948600846406888
:1005000048600846406840F480604860084640689B
:1005100020F47C1048600846406840F4E8104860C9
:100520000846006840F08070086000BF0C48006812
:1005300000F000700028F9D00948406820F003005E
:10054000074948600846406840F00200486000BF24
:100550000348406800F00C000828F9D10CBD0000E9
:1005600000100240002002407047000010B5134800
:10057000006840F0010011490860084640681049D1
:1005800008400E494860084600680E4908400B497B
:1005900008600846006820F480200860084640682B
:1005A00020F4FE0048604FF41F008860FFF767FFEB
:1005B0004FF000600449086010BD000000100240C8
:1005C0000000FFF8FFFFF6FE08ED00E0704721B1E4
:1005D000028842F08002028004E002884FF67F73B6
:1005E0001A4002807047CA430282704721B10288D4
:1005F00042F00102028004E002884FF6FE731A40C6
:100600000280704710B5FFF715FEFFF7C3FD10BD60
:1006100070B5002400220023058C4FF6EF7635409C
:100620000584028C8388048B48F6FF752C404FF6B6
:10063000FF452C400D884FF6FF7606EA05252C4332
:100640004FF6DF752A400D8906EA05152A434D88C5
:1006500006EA05152A43154DA84202D0144DA842BA
:100660001DD14FF67F752A404D894FF6FF7606EA79
:1006700005152A434FF6BF752A408D8806EA0515F1
:100680002A434FF6FF352B404FF2FF752B408D89E3
:1006900006EA85052B43CD8906EA85052B43838031
:1006A0000483CD880587028470BD0000002C0140C2
:1006B000003401400A460021018B4FF2FF731940BC
:1006C0004FF6FF7303EA02231943018370470000CA
:1006D00070B5002400220023058C4FF6FF663540DC
:1006E0000584028C8388848B4FF68F752C404FF6DF
:1006F000FC752C400D882C434FF6FF552A400D8980
:100700004FF6FF7606EA05252A434D8806EA0525B9
:100710002A43154DA84202D0144DA8421DD14FF2D4
:10072000FF752A404D894FF6FF7606EA05252A43D4
:100730004FF6FF352A408D8806EA05252A434EF6F6
:10074000FF752B404DF6FF752B408D8906EA051588
:100750002B43CD8906EA05152B4383808483CD88FE
:100760008587028470BD0000002C014000340140E8
:100770000A460021818B4FF6F7731940114381839C
:100780007047000070B5002200230024058C4EF64F
:10079000FF7635400584038C8488828B48F6FF758C
:1007A0002A404FF6FF452A400D884FF6FF7606EAAD
:1007B00005252A434DF6FF752B400D8906EA0535C0
:1007C0002B434D8806EA05352B430B4DA84202D03A
:1007D0000A4DA84208D14BF6FF752C408D894FF683
:1007E000FF7606EA85152C4384808283CD88A0F8A5
:1007F0004050038470BD0000002C014000340140D3
:100800000A460021818B4FF2FF7319404FF6FF73A8
:1008100003EA022319438183704700000022028803
:100820001D4B98420ED01D4B98420BD0B0F1804F1B
:1008300008D01B4B984205D01A4B984202D01A4B55
:10084000984204D14FF68F731A404B881A43174BC6
:10085000984207D0164B984204D04FF6FF431A40F7
:10086000CB881A4302808B8883850B8803850A4BCB
:1008700098420BD0094B984208D00E4B984205D0B5
:100880000D4B984202D00D4B984201D10B7A038652
:100890000123838270470000002C01400034014096
:1008A0000004004000080040000C00400010004020
:1008B0000014004000400140004401400048014055
:1008C00000BFFEE702E008C8121F08C1002AFAD1E3
:1008D00070477047002001E001C1121F002AFBD1C0
:1008E000704700BF011EA0F10100FBD1704700005E
:1008F000002400250026FFF785FE26E0002422E0E4
:100900001248C48001461248FFF7E2FE002516E0B7
:100910000E48C58001460E48FFF734FF00260AE066
:100920000A48C68001460A48FFF772FEFF20FFF71B
:10093000D8FF701C86B2C82EF2DB681C85B2C82DA9
:10094000E6DB601C84B2C82CDADBD7E700000020AD
:1009500000040040640900080000002010040000AA
:04096000D4080008AF
:0400000508000131BD
:00000001FF
