:020000040800F2
:100000000004002045010008B9030008B5020008FB
:10001000B50300088D0100087D0500080000000000
:100020000000000000000000000000002D04000897
:100030009101000800000000BB030008190500083A
:100040005F0100085F0100085F0100085F01000810
:100050005F0100085F0100085F0100085F01000800
:100060005F0100085F0100085F0100085F010008F0
:100070005F0100085F0100085F0100085F010008E0
:100080005F0100085F0100085F0100085F010008D0
:100090005F0100085F0100085F0100085F010008C0
:1000A0005F0100085F0100085F0100085F010008B0
:1000B0005F0100085F0100085F0100085F010008A0
:1000C0005F0100085F0100085F0100085F01000890
:1000D0005F0100085F0100085F0100085F01000880
:1000E0005F0100085F0100085F0100085F01000870
:1000F0005F0100085F0100085F0100085F01000860
:100100005F0100085F0100085F0100085F0100084F
:100110005F0100085F0100085F0100085F0100083F
:100120005F0100085F0100085F0100085F0100082F
:10013000DFF80CD000F018F800480047AD050008C3
:10014000000400200648804706480047FEE7FEE717
:10015000FEE7FEE7FEE7FEE7FEE7FEE7FEE7FEE777
:100160001D05000831010008064C074D06E0E06857
:1001700040F0010394E8070098471034AC42F6D3EE
:10018000FFF7DAFF300600084006000800BFFEE770
:1001900070472DE9F041024600250026002000238B
:1001A0000024002791F803C00CF00F0591F803C05C
:1001B0000CF0100CBCF1000F03D091F802C04CEA17
:1001C000050591F800C0BCF1000F31D01468002083
:1001D0002BE04FF0010C0CFA00F3B1F800C00CEA70
:1001E00003069E4220D183004FF00F0C0CFA03F758
:1001F000BC4305FA03FC4CEA040491F803C0BCF1CB
:10020000280F06D14FF0010C0CFA00FCC2F814C004
:100210000AE091F803C0BCF1480F05D14FF0010C82
:100220000CFA00FCC2F810C0401C0828D1D314609E
:10023000B1F800C0BCF1FF0F34DD546800202EE09F
:1002400000F1080C4FF0010808FA0CF3B1F800C0F7
:100250000CEA03069E4221D183004FF00F0C0CFAEA
:1002600003F7BC4305FA03FC4CEA040491F803C00D
:10027000BCF1280F05D100F1080C08FA0CF8C2F8FF
:10028000148091F803C0BCF1480F07D100F1080CAD
:100290004FF0010808FA0CF8C2F81080401C08283A
:1002A000CED35460BDE8F081416170470161704771
:1002B000C160704700BFFEE770B505460C460120DF
:1002C00000F02CF8284600F01DF8204600F020F839
:1002D00000F010F800F002F870BD00004CF6CC40C1
:1002E00001490860704700000030004010B500F080
:1002F00001F810BD4AF6AA200149086070470000C5
:100300000030004001494860704700000030004064
:1003100001498860704700000030004001490860D2
:10032000704700000030004008B50121142000F0A3
:1003300045F804208DF803000120ADF8000069465F
:100340000648FFF726FF04208DF80300C002ADF831
:10035000000069460248FFF71CFF08BD0008014085
:1003600000100140024690680840884206D100BF54
:10037000906808408842FBD0012070470020FCE7CD
:1003800008B50121082000F019F810208DF80300AD
:100390002320ADF8000003208DF8020069460448D0
:1003A000FFF7F7FE4FF6FF710148FFF781FF08BD29
:1003B000000C014000BFFEE77047704729B1064AB4
:1003C00092690243044B9A6104E0034A92698243B2
:1003D000014B9A6170470000001002400348406AD8
:1003E00040F08070014948627047000000100240F0
:1003F00010B501460022002300204A11012A02D133
:10040000094C236806E0022A02D1074C236A01E066
:10041000054C636A01F01F02012494401C400CB19A
:10042000012000E0002010BD00100240704710B510
:1004300000F002F810BD00000CB500200190009003
:100440003348006840F480303149086000BF3048CC
:10045000006800F4003000900198401C0190009862
:1004600018B90198B0F5A06FF1D12948006800F4DF
:10047000003010B10120009001E0002000900098B1
:10048000012843D12348006840F01000214908604A
:100490000846006820F0030008600846006840F045
:1004A000020008601A4840681949486008464068D8
:1004B00048600846406840F48060486008464068EC
:1004C00020F47C1048600846406840F4E81048601A
:1004D0000846006840F08070086000BF0C48006863
:1004E00000F000700028F9D00948406820F00300AF
:1004F000074948600846406840F00200486000BF75
:100500000348406800F00C000828F9D10CBD000039
:1005100000100240002002407047000010B5134850
:10052000006840F001001149086008464068104921
:1005300008400E494860084600680E4908400B49CB
:1005400008600846006820F480200860084640687B
:1005500020F4FE0048604FF41F008860FFF767FF3B
:100560004FF000600449086010BD00000010024018
:100570000000FFF8FFFFF6FE08ED00E000BFFEE719
:1005800002E008C8121F08C1002AFAD1704770475C
:10059000002001E001C1121F002AFBD1704700BFFB
:1005A000011EA0F10100FBD170470000FFF7E8FE3B
:1005B0007D20FFF71DFF30B120211948FFF774FEA1
:1005C000FFF70CFF03E002211548FFF76DFE154809
:1005D000FFF7E5FFFFF7A8FE40F271210420FFF7C7
:1005E0006BFE1CE001211048FFF7BCFE48B1012161
:1005F0000B48FFF759FE20210948FFF757FEFFF788
:1006000075FE4FF400510948FFF7ACFE38B10448BD
:100610000C30006880F0200001490C310860E1E7EF
:10062000000C0140FFFF0F000008014000100140D6
:1006300040060008000000200004000090050008AB
:0400000508000131BD
:00000001FF
