:020000040800F2
:100000008004002045010008C1040008B90400086C
:10001000BD0400088D01000845070008000000002D
:10002000000000000000000000000000250500089E
:10003000A103000800000000C30400081106000826
:100040005F0100085F0100085F0100085F01000810
:100050005F0100085F0100085F0100085F01000800
:100060005F0100085F0100085F0100085F010008F0
:100070005F0100085F0100085F0100085F010008E0
:100080005F0100085F0100085F0100085F010008D0
:100090005F0100085F0100085F0100085F010008C0
:1000A0005F0100085F0100085F0100085F010008B0
:1000B0005F0100085F0100085F0100085F010008A0
:1000C0005F0100085F0100085F0100085F01000890
:1000D0005F0100085F0100085F0100085F01000880
:1000E0005F0100085F0100085F0100085F01000870
:1000F0005F0100085F0100085F0100085F01000860
:100100005F0100085F0100085F0100085F0100084F
:100110005F0100085F0100085F0100085F0100083F
:100120005F0100085F0100085F0100085F0100082F
:10013000DFF80CD000F018F8004800476707000807
:10014000800400200648804706480047FEE7FEE797
:10015000FEE7FEE7FEE7FEE7FEE7FEE7FEE7FEE777
:100160001506000831010008064C074D06E0E0685E
:1001700040F0010394E8070098471034AC42F6D3EE
:10018000FFF7DAFFB0070008C007000800BFFEE76E
:1001900039B1084A1268012383401A43054B1A609B
:1001A00006E0044A1268012383409A43014B1A6017
:1001B000704700000074004000B585B00121480779
:1001C00000F090F90121042000F09CF93020ADF8F6
:1001D000000000208DF803006946104800F0E1F8A7
:1001E000002003902420019002200490002002901F
:1001F00001A900F057F801A9102000F053F80121DF
:100200000020FFF7C5FF01211020FFF7C1FF0121EA
:10021000102000F005F805B000BD00000008014006
:1002200041B1094A12684FF4805383401A43064B88
:100230001A6007E0044A12684FF4805383409A43DF
:10024000014B1A60704700000074004000B58BB08D
:100250000121022000F036F90F4800900F4801906C
:100260001020029020200390002004908020059010
:10027000800006908000079020200890C00109901F
:1002800000200A906946064800F06CF801210448F5
:1002900000F05CF80BB000BD2074004000000020AE
:1002A0004404024030B5002200230A4C226840F684
:1002B000FE748440A243D1E900452C438D682C4351
:1002C000CD6844EA050303FA00F42243014C22609E
:1002D00030BD00000074004010B50024FFF76CFF33
:1002E00000F016F800BF09E0074830F8140000EBF2
:1002F0000040064941F82400601CC4B2202CF3DB06
:10030000FFF7A4FF10BD00006E07000800000020EA
:100310000EB50121084600F0E5F80020ADF8060012
:10032000ADF802001320ADF804006F20ADF8000016
:1003300069464FF0804000F0B3F92021480600F0F4
:10034000A5F90121880700F095F90EBD21B10268D9
:1003500042F00102026004E002684FF6FE731A40A8
:100360000260704710B50022026847F6F0739A43A6
:100370000C6A8B6823430C6923434C6923438C69C3
:100380002343CC6923434C6A23438C6A23431A4397
:100390000260CB6843600B6883604B68C36010BD2C
:1003A00070472DE9F0410246002500260020002379
:1003B0000024002791F803C00CF00F0591F803C04A
:1003C0000CF0100CBCF1000F03D091F802C04CEA05
:1003D000050591F800C0BCF1000F31D01468002071
:1003E0002BE04FF0010C0CFA00F3B1F800C00CEA5E
:1003F00003069E4220D183004FF00F0C0CFA03F746
:10040000BC4305FA03FC4CEA040491F803C0BCF1B8
:10041000280F06D14FF0010C0CFA00FCC2F814C0F2
:100420000AE091F803C0BCF1480F05D14FF0010C70
:100430000CFA00FCC2F810C0401C0828D1D314608C
:10044000B1F800C0BCF1FF0F34DD546800202EE08D
:1004500000F1080C4FF0010808FA0CF3B1F800C0E5
:100460000CEA03069E4221D183004FF00F0C0CFAD8
:1004700003F7BC4305FA03FC4CEA040491F803C0FB
:10048000BCF1280F05D100F1080C08FA0CF8C2F8ED
:10049000148091F803C0BCF1480F07D100F1080C9B
:1004A0004FF0010808FA0CF8C2F81080401C082828
:1004B000CED35460BDE8F08100BFFEE700BFFEE789
:1004C0007047704729B1064A52690243044B5A618A
:1004D00004E0034A52698243014B5A6170470000AD
:1004E0000010024029B1064AD2690243044BDA6186
:1004F00004E0034AD2698243014BDA61704700008D
:100500000010024029B1064A92690243044B9A61E5
:1005100004E0034A92698243014B9A6170470000EC
:1005200000100240704710B500F002F810BD000046
:100530000CB50020019000903348006840F48030F2
:100540003149086000BF3048006800F40030009076
:100550000198401C0190009818B90198B0F5A06F5F
:10056000F1D12948006800F4003010B1012000905A
:1005700001E0002000900098012843D12348006842
:1005800040F01000214908600846006820F0030090
:1005900008600846006840F0020008601A48406899
:1005A000194948600846406848600846406840F479
:1005B000806048600846406820F47C104860084627
:1005C000406840F4E81048600846006840F08070D9
:1005D000086000BF0C48006800F000700028F9D0E7
:1005E0000948406820F00300074948600846406811
:1005F00040F00200486000BF0348406800F00C0073
:100600000828F9D10CBD0000001002400020024073
:100610007047000010B51348006840F00100114910
:10062000086008464068104908400E49486008467E
:1006300000680E4908400B4908600846006820F42D
:10064000802008600846406820F4FE0048604FF4AF
:100650001F008860FFF767FF4FF0006004490860E3
:1006600010BD0000001002400000FFF8FFFFF6FE82
:1006700008ED00E021B1028842F00102028004E0AE
:1006800002884FF6FE731A400280704782884FF648
:100690008F731A40828082880A43828070470000EC
:1006A000002202881D4B98420ED01D4B98420BD061
:1006B000B0F1804F08D01B4B984205D01A4B98429E
:1006C00002D01A4B984204D14FF68F731A404B88D0
:1006D0001A43174B984207D0164B984204D04FF656
:1006E000FF431A40CB881A4302808B8883850B888E
:1006F00003850A4B98420BD0094B984208D00E4B09
:10070000984205D00D4B984202D00D4B984201D132
:100710000B7A03860123838270470000002C01407E
:10072000003401400004004000080040000C00407C
:10073000001000400014004000400140004401400F
:100740000048014000BFFEE702E008C8121F08C1D0
:10075000002AFAD170477047002001E001C1121F42
:10076000002AFBD17047FFF7B7FD00BFFEE7000886
:100770009C09280B920CCC0DCA0E810FE80FFD0FBF
:10078000BF0F2F0F540E360DE20B650ACF0831074D
:100790009B051E04CA02AC01D100410003001800F1
:1007A0007F00360134026E03D8046406000800009E
:1007B000C00700080000002080040000580700085F
:0400000508000131BD
:00000001FF
