:020000040800F2
:100000002004002045010008AD070008A5070008EE
:10001000A9070008E9040008C50C0008000000005A
:100020000000000000000000000000008909000836
:100030008D0600080000000059080008750A000835
:100040005F0100085F0100085F0100085F01000810
:100050005F0100085F0100085F0100085F01000800
:100060005F0100085F0100085F0100085F010008F0
:100070005F0100085F0100085F0100085F010008E0
:100080005F0100085F0100085F0100085F010008D0
:100090005F0100085F0100085F0100085F010008C0
:1000A0005F0100085F0100085F0100085F010008B0
:1000B0005F0100085F0100085F0100085F010008A0
:1000C0005F0100085F0100085F0100085F01000890
:1000D0005F0100085F0100085F0100085F01000880
:1000E0005F0100085F0100085F0100085F01000870
:1000F0005F0100085F0100085F0100085F01000860
:100100005F0100085F0100085F0100085F0100084F
:100110005F0100085F0100085F0100085F0100083F
:100120005F0100085F0100085F0100085F0100082F
:10013000DFF80CD000F04AF800480047F90F00083B
:10014000200400200648804706480047FEE7FEE7F7
:10015000FEE7FEE7FEE7FEE7FEE7FEE7FEE7FEE777
:10016000790A0008310100082DE9F05F05460020FA
:1001700092469B4688460646814640241BE0284618
:1001800041464746224600F042F853465A46C01AB6
:10019000914110D311461846224600F029F82D1A35
:1001A00067EB01084F4622460120002100F020F8AD
:1001B00017EB00094E41201EA4F10104DFDC484684
:1001C00031462A464346BDE8F09F0000064C074DE5
:1001D00006E0E06840F0010394E807009847103417
:1001E000AC42F6D3FFF7A8FF88100008A81000085B
:1001F000202A04DB203A00FA02F1002070479140E7
:10020000C2F1200320FA03F3194390407047202ADB
:1002100004DB203A21FA02F00021704721FA02F3B0
:10022000D040C2F12002914008431946704721B1E5
:10023000826842F00102826003E0826822F00102DB
:100240008260704721B1826842F48072826003E06C
:10025000826822F4807282607047014600208A68BA
:1002600002F004020AB1012000E0002070470146BC
:1002700000208A6802F008020AB1012000E0002094
:100280007047000030B502460020002350680F4C34
:1002900020400D790C6844EA0524204350609068A2
:1002A0000B4C2040D1E902542C434D7944EA4504DB
:1002B00020439060D06A20F470000C7C641EE4B28D
:1002C000234340EA0350D06230BD0000FFFEF0FF40
:1002D000FDF7F1FFF0B504460D4600200021092D81
:1002E00011DDE068A5F10A0606EB4607072606FAC7
:1002F00007F18843A5F10A0606EB460603FA06F164
:100300000843E0600CE0206905EB4507072606FA84
:1003100007F1884305EB450603FA06F1084320611F
:10032000072A0FDA606B561E06EB86071F2606FAB1
:1003300007F18843561E06EB860605FA06F10843C8
:10034000606322E00D2A0FDA206BD61F06EB8607CA
:100350001F2606FA07F18843D61F06EB860605FA24
:1003600006F10843206310E0E06AA2F10D0606EBF7
:1003700086071F2606FA07F18843A2F10D0606EB51
:10038000860605FA06F10843E062F0BD816841F097
:1003900008018160704721B1826842F4A002826046
:1003A00003E0826822F4A00282607047816841F015
:1003B000040181607047000030B10749096841F4C9
:1003C0000001054A116005E00349096821F40001B4
:1003D000014A1160704700000824014010B5012156
:1003E000102000F057FA10BD00B591B0012148026D
:1003F00000F050FA0121084600F03CFA344800F0C1
:1004000081F8344801903448029000200390012084
:1004100004900020059006904FF4807007908000B3
:10042000089020200990C0010A9000200B9001A99B
:10043000274800F00DF90121254800F057F8002069
:100440000C908DF8340001208DF8350000200F90BD
:100450004FF460200E9001208DF840000CA91D483B
:100460004C38FFF70FFF4FF4404000F0F7F9052339
:100470000122102117484C38FFF72CFF0120FFF70D
:100480009BFF012113484C38FFF7DCFE0121114886
:100490004C38FFF7CCFE0F484C38FFF777FF00BF12
:1004A0000C484C38FFF7E3FE0028F9D109484C38D6
:1004B000FFF77CFF00BF07484C38FFF7CEFE00284F
:1004C000F9D1012103484C38FFF765FF11B000BD99
:1004D000080002404C2401400200002010B5FFF744
:1004E0007DFFFFF781FF10BD00BFFEE721B102686D
:1004F00042F00102026004E002684FF6FE731A4007
:100500000260704701684FF6FE72114001600021E1
:10051000016041608160C1604B49884208D14A490D
:100520000839496841F00F01474A083A51608AE0AA
:1005300045491431884208D143490839496841F096
:10054000F001414A083A51607DE03F492831884234
:1005500008D13D490839496841F470613A4A083A7E
:10056000516070E038493C31884208D13649083939
:10057000496841F47041344A083A516063E03249B5
:100580005031884208D130490839496841F4702116
:100590002D4A083A516056E02B496431884208D10F
:1005A00029490839496841F47001274A083A5160DD
:1005B00049E025497831884208D1234908394968FA
:1005C00041F07061204A083A51603CE01F4988427E
:1005D00006D1011F096841F00F01021F116032E0CE
:1005E0001A491431884208D11849091F096841F095
:1005F000F001164A121F116025E014492831884283
:1006000008D11249091F096841F470610F4A121F8D
:10061000116018E00D493C31884208D10B49091F8F
:10062000096841F47041094A121F11600BE0074943
:100630005031884207D10549091F096841F47021EA
:10064000024A121F1160704708000240080402406D
:1006500010B50022026847F6F0739A430C6A8B6863
:1006600023430C6923434C6923438C692343CC699E
:1006700023434C6A23438C6A23431A430260CB68AA
:1006800043600B6883604B68C36010BD70472DE901
:10069000F041024600250026002000230024002708
:1006A00091F803C00CF00F0591F803C00CF0100C8A
:1006B000BCF1000F03D091F802C04CEA050591F897
:1006C00000C0BCF1000F31D0146800202BE04FF0C7
:1006D000010C0CFA00F3B1F800C00CEA03069E42CC
:1006E00020D183004FF00F0C0CFA03F7BC4305FA3E
:1006F00003FC4CEA040491F803C0BCF1280F06D1B6
:100700004FF0010C0CFA00FCC2F814C00AE091F89A
:1007100003C0BCF1480F05D14FF0010C0CFA00FCEE
:10072000C2F810C0401C0828D1D31460B1F800C032
:10073000BCF1FF0F34DD546800202EE000F1080CFE
:100740004FF0010808FA0CF3B1F800C00CEA0306F8
:100750009E4221D183004FF00F0C0CFA03F7BC43EB
:1007600005FA03FC4CEA040491F803C0BCF1280F1D
:1007700005D100F1080C08FA0CF8C2F8148091F8C1
:1007800003C0BCF1480F07D100F1080C4FF001087D
:1007900008FA0CF8C2F81080401C0828CED3546028
:1007A000BDE8F08100BFFEE700BFFEE7704708B577
:1007B0004FF4A06000F046F825208DF800000120DD
:1007C0008DF801008DF802008DF80300684600F0F6
:1007D00001F808BD70B5002100230F22C47804B3CE
:1007E000154C246804F4E064C4F5E064210AC1F106
:1007F0000403CA40447804FA03F184781440214386
:1008000009010E4C0678A155047804F01F05012457
:10081000AC4005786D11AD0005F1E025C5F800414B
:1008200009E0047804F01F050124AC40044D06786B
:10083000761145F8264070BD0CED00E000E400E0C4
:1008400080E100E002490143024A11607047000064
:100850000000FA050CED00E07047000001460020A2
:10086000034A506820F4404008435060704700003D
:100870000010024029B1064A52690243044B5A61F2
:1008800004E0034A52698243014B5A6170470000F9
:100890000010024029B1064A92690243044B9A6152
:1008A00004E0034A92698243014B9A617047000059
:1008B0000010024030B500210022002400232D4DFD
:1008C0006D6805F00C0121B1042905D0082923D158
:1008D00005E0294D056022E0274D05601FE0254D0C
:1008E0006D6805F47012234D6D6805F4803402259F
:1008F00005EB92421CB9214D554305600BE01D4D9F
:100900006D6805F400351DB11C4D5543056002E0CE
:10091000194D5543056002E0174D056000BF00BF4B
:10092000144D6D6805F0F0010909154D6B5C056803
:10093000DD4045600F4D6D6805F4E061090A104D1A
:100940006B5C4568DD4085600A4D6D6805F460515B
:10095000C90A0B4D6B5C4568DD40C560054D6D688F
:1009600005F44041890B074D6B5CC568B5FBF3F599
:10097000056130BD0010024000127A0000093D0000
:100980000400002014000020704710B500F002F8A9
:1009900010BD00000CB500200190009033480068A5
:1009A00040F480303149086000BF3048006800F4EE
:1009B000003000900198401C0190009818B90198EF
:1009C000B0F5A06FF1D12948006800F4003010B1F3
:1009D0000120009001E0002000900098012843D100
:1009E0002348006840F0100021490860084600686C
:1009F00020F0030008600846006840F0020008602C
:100A00001A484068194948600846406848600846E6
:100A1000406840F4806048600846406820F47C10DC
:100A200048600846406840F4E8104860084600689E
:100A300040F08070086000BF0C48006800F0007053
:100A40000028F9D00948406820F0030007494860B1
:100A50000846406840F00200486000BF0348406814
:100A600000F00C000828F9D10CBD00000010024075
:100A7000002002407047000010B51348006840F0A5
:100A800001001149086008464068104908400E49B5
:100A90004860084600680E4908400B49086008464F
:100AA000006820F4802008600846406820F4FE00BA
:100AB00048604FF41F008860FFF767FF4FF0006049
:100AC0000449086010BD0000001002400000FFF85B
:100AD000FFFFF6FE08ED00E021B1828942F40052EA
:100AE000828104E082894DF6FF731A40828170474B
:100AF00000B585B001210420FFF7CCFE0121880359
:100B0000FFF7C8FE4FF40070ADF8100018208DF804
:100B1000130003208DF8120004A91748FFF7B7FD52
:100B20004FF48060ADF8100004208DF8130004A984
:100B30001148FFF7ACFD4FF4E13000900020ADF814
:100B40000400ADF80600ADF80800ADF80C000C206C
:100B5000ADF80A006946094800F044F8FFF727FE9F
:100B6000012240F22551054800F017F80121034801
:100B7000FFF7B2FF05B000BD00080140003801409A
:100B800002460020B1F5007F00D100BF13880B4062
:100B90000BB1012000E000207047F0B503460024AF
:100BA00000260025002040F66A17B94200D100BF98
:100BB0001846C1F3421401F01F06012707FA06F593
:100BC000012C01D10C3004E0022C01D1103000E0E6
:100BD00014301AB107682F43076002E00768AF437B
:100BE0000760F0BD2DE9F04786B005460E460024AB
:100BF000A24600BFA1460027B08900B100BF2F4622
:100C00002C8A4CF6FF700440F08804432C82AC8997
:100C10004EF6F3100440B0883189084371890843C7
:100C20000443AC81AC8A4FF6FF400440B0890443D2
:100C3000AC8201A8FFF73EFE1F48874202D1DDF8D3
:100C400010A001E0DDF80CA0A88900F4004040B13C
:100C50000AEBCA0000EB0A1031684900B0FBF1F85A
:100C600007E00AEBCA0000EB0A1031688900B0FB0C
:100C7000F1F86420B8FBF0F004012009642101FBC5
:100C80001089A88900F4004040B1322000EBC9006F
:100C9000B0FBF1F000F00700044308E0322000EB65
:100CA00009106421B0FBF1F000F00F0004432C8127
:100CB00006B0BDE8F087000000380140C1F308022B
:100CC0008280704700BFFEE70FB4054B10B503A943
:100CD000044A029800F018F810BC5DF814FB0000FC
:100CE000D50F00081800002002E008C8121F08C134
:100CF000002AFAD170477047002001E001C1121F9D
:100D0000002AFBD1704700002DE9FF4F8DB09B46B4
:100D10000F460446002606E025280BD05A460F99B8
:100D20009047641C761C20780028F5D111B030461D
:100D3000BDE8F08F0025A8460122984900E0054350
:100D400014F8013F203B02FA03F00842F7D1207863
:100D50002E2817D114F8010F45F004052A280ED0CB
:100D60006FF02F022078A0F1300109290AD808EB92
:100D7000880102EB410100EB0108641CF2E757F81F
:100D8000048B641C20786C280DD004DC4C2812D015
:100D90006A2811D104E074280DD07A280CD10AE019
:100DA00045F4001507E0617845F48015814202D1D1
:100DB000641C05F58015641C2278692A45D008DC7E
:100DC000002AB3D0582A69D0632A10D0642A08D1E7
:100DD0003BE0702A67D0732A13D0752A5CD0782A3A
:100DE0005CD010465A460F999047761CD3E017F80E
:100DF000040B8DF8000000208DF80100E946012069
:100E000003E057F8049B4FF0FF3069074FF00005EF
:100E100001D40AE06D1C45450DDA8542FADB19F86C
:100E200005100029F6D106E06D1C8542FCDB19F89F
:100E300005100029F8D12E4404E019F8010B5A4698
:100E40000F9990476D1EF8D2A5E00A200021CDE948
:100E50000801C5F3025002280DD001CFC117031EAF
:100E600071F100030DDA4FF0000CD0EB0C006CEBCD
:100E700001012D2308E0FF1D27F00707F7E8020115
:100E8000EDE72B0504D52B238DF8283001233BE01B
:100E9000EB0739D02023F7E70A2000E010200021DB
:100EA000CDE9080107E01020002145F00405CDE957
:100EB00008014FF00808C5F3025002280FD001CFF7
:100EC00000214FF0000A2B071FD5702A0DD0DDE955
:100ED00008C38CF0100C5CEA030C0CD015E0FF1D6D
:100EE00027F00707F7E80201EBE740228DF82820FA
:100EF0004FF0010A0BE050EA010306D030238DF8D1
:100F000028308DF8292002239A46582A04D024A29A
:100F10000DF120090B9209E026A2F9E7DDE908238B
:100F2000FFF722F90B9B9B5C09F8013D50EA010297
:100F3000F4D1ADEB090020300890680701D44FF0E0
:100F400001080899884502DDA8EB010000E00020B7
:100F50008046002506E00AA85A46405D0F99904752
:100F60006D1C761C5545F6DB04E030205A460F997F
:100F70009047761CB8F10001A8F10108F5DC05E006
:100F800019F8010B5A460F999047761C0899481E8C
:100F900008900029F4DC641CC5E600000928010063
:100FA00030313233343536373839616263646566DF
:100FB00000000000303132333435363738394142A1
:100FC000434445460000000000BF011EA0F101009F
:100FD000FBD1704770B504460D46E1B20548FFF7F6
:100FE0006DFE00BF80210348FFF7CAFD0028F9D03D
:100FF000204670BD00380140FFF77AFDFFF76EFA1A
:101000000EA0FFF761FE17E01248008840F2EE6183
:10101000081A052190FBF1F019300F4908800D489E
:1010200001880EA0FFF750FE0B48018810A0FFF7C3
:101030004BFE1448FFF7C8FFE6E70000414443C4F5
:10104000DAB2BFCEC2B6C8B2C9BCAFCAB5D1E90A1E
:10105000000000000200002000000020BBF1B5C32A
:10106000D4ADCABCCAFDBEDDA3BA25780A00000013
:10107000BBF1B5C3CAFDBEDDA3BA256420A1E3431D
:101080000A000000EEFFFF00A8100008000000208A
:101090001C000000E80C0008C41000081C00002020
:1010A00004040000F80C000800000000000000002C
:1010B00001020304010203040607080902040608EA
:0410C000000000002C
:0400000508000131BD
:00000001FF
