:020000040800F2
:100000008805002045010008751A0008F50F000852
:10001000711A00087508000881250008000000001A
:10002000000000000000000000000000691E000841
:100030009D09000800000000211B0008AD1F0008FA
:100040005F0100085F0100085F0100085F01000810
:100050005F0100085F0100085F0100085F01000800
:100060005F0100085F0100085F0100085F010008F0
:100070005F0100085F0100085F0100085F010008E0
:100080005F0100085F0100085F0100085F010008D0
:100090005F0100085F0100085F0100085F010008C0
:1000A0005F0100085F0100085F0100085F010008B0
:1000B0005F0100085F0100085F0100085F010008A0
:1000C0005F0100085F0100085F0100085F01000890
:1000D0005F0100085F0100085F0100085F01000880
:1000E0005F0100085F0100085F0100085F01000870
:1000F0005F0100085F0100085F0100085F01000860
:100100005F0100085F0100085F0100085F0100084F
:100110005F0100085F0100085F0100085F0100083F
:100120005F0100085F0100085F0100085F0100082F
:10013000DFF80CD000F0F4FA004800470D36000854
:10014000880500200648804706480047FEE7FEE78E
:10015000FEE7FEE7FEE7FEE7FEE7FEE7FEE7FEE777
:10016000B11F000831010008D2B201E000F8012BF4
:10017000491EFBD270470022F6E710B513460A4627
:1001800004461946FFF7F0FF204610BD421C10F848
:10019000011B0029FBD1801A7047F0B480EA0102EC
:1001A000D40F4200B2EB410F02D20246084611467C
:1001B0004A0042D0C30DDDB2C1F3C752AD1A202DA3
:1001C00035DAC1F3160141F4000204B15242C5F11F
:1001D000200602FA06F12A411044B3EBD05F23D087
:1001E000C4B1012DA0EBC35009DCF0BC4FF00042BC
:1001F00002EAC352DBB200F5000000F006BA40008C
:1002000000F1807000EBC350A0F1807040EAD17023
:10021000490009E0490841EAC071A0EBC35000F56C
:100220000000400800EBC350F0BC00F0E5B96142AB
:10023000012202EB4101001BF6E7F0BC704781F0A0
:100240000041AAE780F00040A7E780EA010210B56C
:1002500002F00043400022D04A001FD0010E01EB03
:100260001261C0F35600C2F3560240F4000042F49B
:100270000002A0FB022000047F39140400D0401CBF
:1002800050EA124001D44000491EC2B20C0604EBF1
:10029000D010401C4008802A02D003E0002010BD8E
:1002A00020F00100002900DA0020184310BD30B40E
:1002B00080EA010202F0004530F0004221F00040E7
:1002C00013D090B1C30DD40DC2F31601C0F31600C4
:1002D000E41A41F4000140F400027D34914201D35C
:1002E000641C00E04900002C02DA30BC002070479A
:1002F0004FF400000023914201D3891A03434008C0
:100300004FEA4101F7D151B1914202D14FF0004182
:1003100005E002D24FF0010101E06FF0010103EBB3
:10032000C450284430BC00F067B92DE9FE4F81EA83
:10033000030404F0004421F0004100944FF0000B4E
:1003400023F0004350EA01045ED052EA03045BD07C
:10035000C3F30A54C1F30A552C44A4F2F3340194B4
:10036000A0FB0254C1F3130141F48011C3F3130342
:1003700043F4801301FB024400FB034E840A970AF6
:1003800044EA815447EA8357A4FB076802958D0A23
:1003900005FB07854FEA932C04FB0C542705029DAF
:1003A0004FEA065847EA1637B5EB08056EEB070C1F
:1003B000870E920E47EA811742EA8312A7FB0201D9
:1003C000B6EB0B0164EB00042B0D43EA0C335E1813
:1003D00044EB1C50DA465146E7FB0201C5F3130417
:1003E0004FEA0B3343EA14534FEA0432019C43EAC9
:1003F0000603A4F10C040294009CCDE900B400F0C3
:1004000041F903B0BDE8F08F00200146F9E72DE97E
:10041000F04D81EA030404F0004B21F0004514463E
:100420004FF0000A23F0004150EA050220D054EAC0
:1004300001021DD0C5F30A570246C5F31303C1F3E9
:100440001300C1F30A5640F4801543F48013A7EB60
:100450000608101BD64608F2FD3873EB050002D3E0
:1004600008F1010801E092185B41B8F1000F03DACE
:1004700000200146BDE8F08D00204FF480110646B3
:1004800084460EE0171B73EB050705D3121B63EBC5
:10049000050306434CEA010C49084FEA3000921864
:1004A0005B4150EA0107EDD152EA030012D082EA23
:1004B000040083EA0501084305D0101BAB4106D2B6
:1004C0000122002306E000224FF0004302E06FF01B
:1004D000010253101AEB06004CEB085110EB0A0016
:1004E00041EB0B01BDE8F04D00F0BDB8C10F80EA53
:1004F000E0700844CA079623002100F086B800F097
:10050000004220F00040C10DC0F3160040F400008E
:100510007F2901DA00207047962903DCC1F196019A
:10052000C84001E096398840002AF4D04042704724
:1005300020F00040C10DC0F3160040F400007F29F8
:1005400001DA00207047962903DCC1F19601C8400A
:10055000704796398840704700F0004230F0004004
:100560000AD0C10D01F56071C0F3160042EA0151D5
:10057000C20840071143704700200146704701F050
:10058000004330B421F0004150EA010206D00A0DC8
:10059000A2F56072C1F31301002A02DC30BC002016
:1005A0007047440F44EAC104C100E01830BC00EBBE
:1005B000C25000F021B80000002801DBC0F100406B
:1005C000002901DBC1F100418142704730B50B4683
:1005D000014600202022012409E021FA02F59D4273
:1005E00005D303FA02F5491B04FA02F52844151E47
:1005F000A2F10102F1DC30BD0029A8BF7047401C08
:10060000490008BF20F00100704710B4B0FA80FC28
:1006100000FA0CF050EA010404BF10BC704749B165
:10062000CCF1200421FA04F411FA0CF118BF0121D5
:1006300021430843A3EB0C01CB1D4FEA00614FEAB5
:10064000102042BF002010BC704700EBC350104484
:100650000029A4BF10BC7047401C490008BF20F00F
:10066000010010BC704710B5141E73F1000408DAC5
:10067000401C41F1000192185B411A4301D120F066
:10068000010010BD2DE9F04D92469B4611B1B1FA23
:1006900081F202E0B0FA80F22032904600F052F887
:1006A00004460F4640EA0A0041EA0B0153465A4607
:1006B000084313D0114653EA010019D0C8F1400293
:1006C000504600F04EF805460E4650465946424602
:1006D00000F038F8084305D0012004E020463946F0
:1006E000BDE8F08D0020054346EAE0762C43374311
:1006F0000A986305E40AA0EB08000022FD0A44EA18
:1007000047540A3002D500200146E9E701051019D7
:100710006941DDE9084500196941BDE8F04DA2E7EE
:10072000064C074D06E0E06840F0010394E807003E
:1007300098471034AC42F6D3FFF7FEFC1C72000859
:100740003C720008202A04DB203A00FA02F1002063
:1007500070479140C2F1200320FA03F319439040FF
:100760007047202A04DB203A21FA02F0002170476A
:1007700021FA02F3D040C2F1200291400843194609
:100780007047000008B50121102001F0DBF91820A6
:100790008DF8030003208DF802004020ADF8000022
:1007A0006946124800F060FB0121042001F0CAF9FB
:1007B0008020ADF8000018208DF8030069460C4831
:1007C00000F052FB0121042001F0BCF94020ADF8FB
:1007D000000018208DF803006946054800F044FB2E
:1007E0004021034800F0D4FB08BD00000010014088
:1007F0000008014010B5FFF7C5FF00F001F810BD7B
:1008000010B50121480301F09DF900201649C88068
:10081000488041F63F7088800820088000200872D8
:10082000124801F067FC4FF47A601149C8804FF418
:1008300080708881602008800020C88148810881FC
:10084000888001204880094801F0FEFB0821074804
:1008500001F046FC0121054801F0DAFB01210348C3
:1008600001F0E2FB10BD00006C01002000340140EB
:100870007601002000BFFEE738B505460C46002093
:10088000009000F09BF901226946900200F04EFAB8
:100890009DF80000A52801D0012000E00020012CD7
:1008A00001D1012100E00021084308B39DF80000B8
:1008B000A52806D1012C04D1C0221149E00200F084
:1008C00035FA00BF284602F003FA0028FAD00020CB
:1008D00000F052FAA520009001226946900200F033
:1008E00000FAC02206494FF4006000F0FAF905E072
:1008F000C02203494FF4006000F018FA38BD000030
:100900003400002070B504462546688907490880F0
:1009100007488088401C698948430A2190FBF1F010
:100920000449C880044801F08FFB70BD020000201C
:100930006C010020760100200034014070B50446AF
:1009400025466889401C0F4991FBF0F00E4908804C
:1009500068890E4988800E4801F0CCFB0B488088DE
:10096000401C0C49098848430A2190FBF1F00A49D0
:10097000C880074801F068FB0121054801F048FBE9
:1009800070BD000000127A00000000206C01002001
:100990000034014002000020760100207047000072
:1009A0002DE9FF4105462C46608900EB800042009E
:1009B00039A101A802F048FC207A60BB4FF6FF7114
:1009C0004CF2186001F024F801200090E688678856
:1009D000F61BB3B2A6882788F61BB2B261883846E8
:1009E00000F0BEFC4CF218611E2001F011F82E48F8
:1009F00001F018F8E2886388D21AA2F1100606EB1B
:100A0000D67203EB620291B22288121D90B201AA43
:100A100000F0E6FB2AE04CF21861084600F0F8FF0F
:100A200001200090E6886788F61BB3B2A688278865
:100A3000F61BB2B26188384600F092FC4CF21861A5
:100A4000002000F0E5FF184800F0ECFFE288638822
:100A5000D21AA2F1100606EBD67203EB620291B233
:100A60002288121D90B201AA00F0BAFB4FF6FF7166
:100A70004FF4047000F0CCFF00200090E6886788F7
:100A8000F61BB3B2A6882788F61BB2B26188384637
:100A900000F066FCBDE8FF81D5BCBFD5B1C83A25E2
:100AA0002525642000000000140000202DE9FF41EE
:100AB00005462C466089401C3C4991FBF0F63246C5
:100AC0003BA101A802F0C0FB207A68BB4FF6FF7182
:100AD0004CF2186000F09CFF01200090E6886788C7
:100AE000F61BB3B2A6882788F61BB2B261883846D7
:100AF00000F036FC4CF218614FF4784000F088FFAB
:100B00002D4800F08FFFE2886388D21AA2F1100608
:100B100006EBD67203EB620291B22288121D90B2EC
:100B200001AA00F05DFB2AE04CF21861084600F0D3
:100B30006FFF01200090E6886788F61BB3B2A68895
:100B40002788F61BB2B26188384600F009FC4CF2E7
:100B50001861002000F05CFF174800F063FFE28896
:100B60006388D21AA2F1100606EBD67203EB62027A
:100B700091B22288121D90B201AA00F031FB4FF60B
:100B8000FF714FF4047000F043FF00200090E688EE
:100B90006788F61BB3B2A6882788F61BB2B26188B5
:100BA000384600F0DDFBBDE8FF81000000127A004E
:100BB0002564487A000000001400002010B501F000
:100BC00073F801F045F810BD51B18200A2F1C042A6
:100BD000126842F001038200A2F1C042136009E0F2
:100BE0008200A2F1C0421268034B1A408300A3F1B5
:100BF000C0431A6070470000FEFF0F00D0E90112E9
:100C00001143C26811430269114342691143826969
:100C10001143C2691143026A1143426A1143826A55
:100C20001143C26A1143026B114302689200A2F1A0
:100C3000C0421160816808290BD101688900A1F1C7
:100C4000C041096841F0400201688900A1F1C0413A
:100C50000A60416B0968426B526841EA0211426BBB
:100C6000926841EA0221426B928941EA0241426B59
:100C7000128A41EA0251426B127D41EA0261426BE3
:100C8000926911430268521C9200A2F1C0421160A5
:100C9000C16AB1F5804F1BD1816B0968826B5268C4
:100CA00041EA0211826B926841EA0221826B128A48
:100CB00041EA0251826B127D41EA0261826B9269C4
:100CC000114302689200A2F1C042C2F8041107E089
:100CD0006FF0704201688900A1F1C041C1F80421A0
:100CE00070472DE9F04105460E4614464FF00008C6
:100CF0000027C4F30728E7B209E04FF480723146B9
:100D0000284600F073F805F5807506F58076B8F191
:100D10000000A8F1010101F0FF08EED13A4631468A
:100D2000284600F063F8BDE8F081000070B5044685
:100D30000D46164601210F4800F02AF9032001F064
:100D40001FF8C4F3074001F01BF8C4F3072001F0BB
:100D500017F8E0B201F014F803E001F00BF8287086
:100D60006D1C301EA6F10106F7D10121014800F0EB
:100D700011F970BD0010014010B5044600F064F890
:100D800000F01CF801210C4800F002F9202000F0CE
:100D9000F7FFC4F3074000F0F3FFC4F3072000F0AF
:100DA000EFFFE0B200F0ECFF0121034800F0F2F8A1
:100DB00000F004F810BD00000010014010B5002440
:100DC0000121094800F0E4F8052000F0D9FF00BF38
:100DD00000F0D0FF044604F001000028F8D1012102
:100DE000014800F0D7F810BD001001402DE9F04196
:100DF00004460E461746002500F026F8012111484A
:100E000000F0C6F8022000F0BBFFC4F3074000F07A
:100E1000B7FFC4F3072000F0B3FFE0B200F0B0FF6B
:100E200000BF04E0705D00F0ABFF681C85B2BD42FE
:100E3000F8DB0121034800F0ADF8FFF7BFFFBDE884
:100E4000F08100000010014010B50121054800F0BC
:100E50009FF8062000F094FF0121024800F09AF864
:100E600010BD0000001001402DE9F04102460025B0
:100E70000026002000230024002791F803C00CF076
:100E80000F0591F803C00CF0100CBCF1000F03D05B
:100E900091F802C04CEA050591F800C0BCF1000FC2
:100EA00031D0146800202BE04FF0010C0CFA00F355
:100EB000B1F800C00CEA03069E4220D183004FF037
:100EC0000F0C0CFA03F7BC4305FA03FC4CEA0404CC
:100ED00091F803C0BCF1280F06D14FF0010C0CFAB9
:100EE00000FCC2F814C00AE091F803C0BCF1480F3E
:100EF00005D14FF0010C0CFA00FCC2F810C0401CE8
:100F00000828D1D31460B1F800C0BCF1FF0F34DD64
:100F1000546800202EE000F1080C4FF0010808FA98
:100F20000CF3B1F800C00CEA03069E4221D1830005
:100F30004FF00F0C0CFA03F7BC4305FA03FC4CEA24
:100F4000040491F803C0BCF1280F05D100F1080C8E
:100F500008FA0CF8C2F8148091F803C0BCF1480FED
:100F600007D100F1080C4FF0010808FA0CF8C2F89C
:100F70001080401C0828CED35460BDE8F0810246A2
:100F8000002093680B400BB1012000E00020704767
:100F90004161704701617047C16070472DE9F041C0
:100FA00005460C461148007820B9FFF707FE0120DE
:100FB0000E4908702612E7B2A6F1A101C1EB011299
:100FC00002EB411107EB4101A1390802C11700EB07
:100FD00051714FEAE108064908EB01002022294639
:100FE000FFF7A4FE0020BDE8F08100002C000020E7
:100FF0000030180000BFFEE710B504462CB14FF4D6
:1010000080510548FFF7C4FF04E04FF480510248C7
:10101000FFF7C0FF10BD0000001401402DE9F041B2
:1010200006460F4614461D462B4622463946304694
:1010300000F056FB04FB05F00249098800F003FAB2
:10104000BDE8F0811200002001B502E00098401ECA
:10105000009000980028F9D108BD00002DE9F04368
:1010600089B080468946174610231A4649464046AD
:1010700000F036FB2C2000F0B5FC394601A8FFF744
:101080008DFF002422E001A810F814604FF6FF70D5
:1010900000EA0626012000EB440001A9085C064393
:1010A00000250FE04FF400402841304020B10A48AD
:1010B000008800F09BFC03E00848008800F096FCE4
:1010C000681CC5B2102DEDDB601CC4B2102CDADB3D
:1010D00009B0BDE8F08300001000002012000020DD
:1010E0002DE9F05F804689461646A6F120001FFADA
:1010F00080FA1E49096889881C4A1268D28801FB57
:1011000002F0C11700EB5171C1F3C707174800681F
:1011100000680AFB070B15480068C388134800687D
:1011200082884946404600F0DBFA2C2000F05AFC49
:10113000002416E0002510E01BF80400802129415E
:10114000084020B10A48008800F050FC03E009483C
:10115000008800F04BFC681CC5B2082DECDB601C5D
:10116000C4B2BC42E6DBBDE8F09F00000C000020EA
:10117000100000201200002070B504460D46002625
:1011800024E03046134909688988084412490988CF
:10119000884205DD00260F480068C088204484B2DC
:1011A00020460C490968C98808440C4909888842C6
:1011B00001DD002600242A7821463046FFF790FF03
:1011C0006D1C044800688088304486B22878002866
:1011D000D7D170BD0C0000200400002006000020C4
:1011E0002DE9F04105460E46144648E020787E2859
:1011F00025DC284624490968898808442349098848
:10120000884205DD002520480068C088304486B249
:1012100030461D490968C98808441D490988884223
:1012200001DD00250026227831462846FFF758FFC9
:10123000154800688088284485B2641C1FE0284651
:10124000103012490988884203DD002506F110009C
:1012500086B2304610300E490988884201DD0025EB
:1012600000262788380200EB272087B23A4631460D
:101270002846FFF7F3FE05F1100085B2A41C207884
:101280000028B3D1BDE8F0810C000020040000204C
:101290000600002070B504460D4604F10A018AB22A
:1012A000143988B22B46294600F00AF805F10A00E5
:1012B00083B2143881B22246204600F001F870BD96
:1012C0002DE9FF4F83B081464FF0000AD3460598C1
:1012D000A0EB090504990698461ACDF804900498E5
:1012E0000090002D01DD012705E00DB9002702E087
:1012F0004FF0FF376D42002E02DD4FF0010806E08F
:1013000016B94FF0000802E04FF0FF387642B542C0
:1013100001DD2C4600E034460020029019E0DDE9B2
:10132000001000F043FBAA44B344A24505DDAAEB3C
:10133000040A0198384480B20190A34505DDABEB67
:10134000040B0098404480B200900298401C80B288
:101350000290611C02988842E1DD07B0BDE8F08F81
:101360002DE9F04104460D4616461F46DDF818806B
:10137000B8F1000F0CD03B4632462946204600F01B
:10138000AFF906FB07F01749098800F05CF827E081
:10139000A019401E82B22B4629462046FFF790FF37
:1013A000E819401E83B2A019401E82B2E819401EFF
:1013B00081B22046FFF784FFE819401E83B222461F
:1013C00029462046FFF77CFFE919491E8BB2A11977
:1013D000491E8AB2A119491E88B22946FFF770FF3B
:1013E000BDE8F0811000002000B597B0012108028F
:1013F00000F098FB00200190012003900007079067
:101400000020029004900590069008900990082012
:101410000A9010200B9000200C900E900F901090CE
:101420004FF480501190002012901390149001A856
:101430001590169008A8FFF7E1FB01210020FFF7A7
:10144000C3FB17B000BD70B504460D4600262C2026
:1014500000F0C8FA00BF03E0284600F0C7FA761C87
:10146000A642F9D370BD000008B50121602000F04C
:1014700069FB03208DF8020018208DF803004FF45B
:101480008040ADF8000069465B48FFF7EDFC4FF483
:101490000040ADF8000069465748FFF7E5FC012021
:1014A000ADF8000069465448FFF7DEFC0220ADF8B5
:1014B000000069465048FFF7D7FC8020ADF80000D7
:1014C00069464E48FFF7D0FC4FF48070ADF800003D
:1014D00069464A48FFF7C8FC4FF40070ADF80000B9
:1014E00069464648FFF7C0FC4FF48060ADF8000045
:1014F00069464248FFF7B8FC4FF40060ADF80000C1
:1015000069463E48FFF7B0FC4FF48050ADF800004C
:1015100069463A48FFF7A8FC4FF40050ADF80000C8
:1015200069463648FFF7A0FC4FF48040ADF8000054
:1015300069463248FFF798FC4FF40040ADF80000D0
:1015400069462E48FFF790FC4FF48070ADF800001C
:1015500069462948FFF788FC4FF40070ADF8000099
:1015600069462548FFF780FC4FF48060ADF8000025
:1015700069462148FFF778FC03208DF80200182007
:101580008DF803001020ADF8000069461A48FFF7F7
:101590006BFC2020ADF8000069461748FFF764FC9B
:1015A0008020ADF8000069461348FFF75DFC4FF45A
:1015B0000060ADF8000069460F48FFF755FC1020A9
:1015C0008DF8030003208DF802000220ADF8000022
:1015D00069460A48FFF748FC10208DF803000320F5
:1015E0008DF802004FF48050ADF8000069460248C3
:1015F000FFF73AFC08BD000000140140001801404C
:1016000010B50446072C00DD10BD284804702046A4
:1016100004EBD0714910A4EB410139B9F020244901
:1016200008804FF4A0702349088006E04FF4A070B2
:101630001F490880F0201F490880362000F0D2F9A9
:10164000082141EA441000F0D1F92A2000F0CAF93B
:10165000002000F0CBF9002000F0C8F914490988F7
:10166000491EC1F3072000F0C1F911490978491E4C
:10167000C8B200F0BBF92B2000F0B4F9002000F054
:10168000B5F9002000F0B2F90A490988491EC1F3F2
:10169000072000F0ABF907490978491EC8B200F0ED
:1016A000A5F92C2000F09EF900BFADE7080000204E
:1016B000040000200600002010B5FFF7D5FEFFF75C
:1016C00093FE0120FFF798FC00F052F900F038F883
:1016D00002480078FFF794FF10BD000008000020CA
:1016E0002DE9F04104460D4616461F462A2000F01B
:1016F00079F9201200F07AF9E0B200F077F9A11937
:10170000491EC1F30F2000F071F9A119491EC8B29A
:1017100000F06CF92B2000F065F9281200F066F952
:10172000E8B200F063F9E919491EC1F30F2000F097
:101730005DF9E919491EC8B200F058F9BDE8F08119
:1017400010B5CF2000F04EF9002000F04FF98120B5
:1017500000F04CF9302000F049F9ED2000F042F99A
:10176000642000F043F9032000F040F9122000F05B
:101770003DF9812000F03AF9E82000F033F98520A6
:1017800000F034F9102000F031F9782000F02EF943
:10179000CB2000F027F9392000F028F92C2000F0A8
:1017A00025F9002000F022F9342000F01FF9022072
:1017B00000F01CF9F72000F015F9202000F016F9D0
:1017C000EA2000F00FF9002000F010F9002000F0EE
:1017D0000DF9B12000F006F9002000F007F91B20F8
:1017E00000F004F9B62000F0FDF80A2000F0FEF841
:1017F000A22000F0FBF8C02000F0F4F8352000F043
:10180000F5F8C12000F0EEF8112000F0EFF8C52047
:1018100000F0E8F8452000F0E9F8452000F0E6F88F
:10182000C72000F0DFF8A22000F0E0F8F22000F07E
:10183000D9F8002000F0DAF8262000F0D3F80120D3
:1018400000F0D4F8E02000F0CDF80F2000F0CEF842
:10185000262000F0CBF8242000F0C8F80B2000F080
:10186000C5F80E2000F0C2F8092000F0BFF854209F
:1018700000F0BCF8A82000F0B9F8462000F0B6F857
:101880000C2000F0B3F8172000F0B0F8092000F0A9
:10189000ADF80F2000F0AAF8072000F0A7F800200C
:1018A00000F0A4F8E12000F09DF8002000F09EF880
:1018B000192000F09BF81B2000F098F8042000F09D
:1018C00095F8102000F092F8072000F08FF82A20F9
:1018D00000F08CF8472000F089F8392000F086F8F5
:1018E000032000F083F8062000F080F8062000F0C6
:1018F0007DF8302000F07AF8382000F077F80F20DB
:1019000000F074F8362000F06DF8C82000F06EF892
:101910002A2000F067F8002000F068F8002000F0AE
:1019200065F8002000F062F8EF2000F05FF82B204F
:1019300000F058F8002000F059F8002000F056F8A8
:10194000012000F053F83F2000F050F83A2000F05A
:1019500049F8552000F04AF8112000F043F80348F8
:10196000FFF772FB292000F03DF810BDFCBF02001C
:1019700010B502210748FFF70BFB40F6FF20FFF7E9
:1019800063FB02210348FFF705FB40F6FF20FFF74A
:101990005BFB10BD0018014070B504460D460123E5
:1019A0001A4629462046FFF79BFE70BD70B50546D6
:1019B0000C460948008885420CDA084800888442B1
:1019C00008DA21462846FFF7E7FF0548018801208D
:1019D000FFF739FD70BD0000040000200600002064
:1019E000100000204FF0C041088070470149088076
:1019F0007047000000000260014800687047000066
:101A00000C000020014908807047000012000020EF
:101A1000024A1080024A1180704700001000002026
:101A20001200002001490860704700000C000020EF
:101A300001490880704700001000002008B501210E
:101A4000082000F07FF810208DF803002320ADF867
:101A5000000003208DF8020069460448FFF704FAED
:101A60004FF6FF710148FFF797FA08BD000C0140DF
:101A700000BFFEE7704708B54FF4A06000F046F8DD
:101A800025208DF8000001208DF801008DF802005E
:101A90008DF80300684600F001F808BD70B500211C
:101AA00000230F22C47804B3154C246804F4E064C6
:101AB000C4F5E064210AC1F10403CA40447804FA81
:101AC00003F184781440214309010E4C0678A15596
:101AD000047804F01F050124AC4005786D11AD00B9
:101AE00005F1E025C5F8004109E0047804F01F0580
:101AF0000124AC40044D0678761145F8264070BDAF
:101B00000CED00E000E400E080E100E00249014368
:101B1000024A1160704700000000FA050CED00E079
:101B20007047000029B1064A52690243044B5A61CA
:101B300004E0034A52698243014B5A617047000036
:101B40000010024029B1064A92690243044B9A618F
:101B500004E0034A92698243014B9A617047000096
:101B60000010024030B500210022002400232D4D3A
:101B70006D6805F00C0121B1042905D0082923D195
:101B800005E0294D056022E0274D05601FE0254D49
:101B90006D6805F47012234D6D6805F480340225DC
:101BA00005EB92421CB9214D554305600BE01D4DDC
:101BB0006D6805F400351DB11C4D5543056002E00C
:101BC000194D5543056002E0174D056000BF00BF89
:101BD000144D6D6805F0F0010909154D6B5C056841
:101BE000DD4045600F4D6D6805F4E061090A104D58
:101BF0006B5C4568DD4085600A4D6D6805F4605199
:101C0000C90A0B4D6B5C4568DD40C560054D6D68CC
:101C100005F44041890B074D6B5CC568B5FBF3F5D6
:101C2000056130BD0010024000127A0000093D003D
:101C3000040100201401002021B1028842F040027A
:101C4000028004E002884FF6BF731A40028070479A
:101C500000B585B001210803FFF774FF0020ADF83F
:101C60000C000120ADF808000220ADF806000020AD
:101C7000ADF81000ADF80400ADF80000ADF80E00AE
:101C80004FF48270ADF802004FF40070ADF80A0016
:101C90006946044800F050F801210248FFF7CCFFE4
:101CA00005B000BD0030014008B501211420FFF748
:101CB00049FF8020ADF8000003208DF802001820B5
:101CC0008DF8030069461348FFF7CEF84020ADF8C1
:101CD000000004208DF8030069460E48FFF7C4F8A1
:101CE0002020ADF8000018208DF80300694609484F
:101CF000FFF7BAF80120ADF8000010208DF80300BE
:101D000069460548FFF7B0F801210348FFF742F99B
:101D100008BD0000000801400010014002460020FC
:101D200013890B400BB1012000E0002070470146F1
:101D3000888970478181704710B50022028802F4BB
:101D400041520B884C8823438C882343CC882343FF
:101D50000C8923434C8923438C892343CC89234317
:101D60001A430280838B4FF2FF74234083830B8AD4
:101D7000038210BD10B5002000F002F810BD000075
:101D800010B504464FF420401D4908600EE01C4980
:101D90000868411E1A4A116040B900BF442219A1C7
:101DA0001EA001F041FA00BF002010BD022124480E
:101DB000FFF7B4FF0028EAD021462148FFF7BAFF19
:101DC0004FF420400E4908600EE00D490868411E9E
:101DD0000B4A116040B900BF4A220AA119A001F0C4
:101DE00023FA00BF0020E0E701211548FFF796FF26
:101DF0000028EAD01248FFF79AFFC0B2D5E70000EA
:101E0000300000202E2E5C557365725C4253505C8E
:101E10006273705F7370692E630000003C3C2D4656
:101E20004C4153482D44454255472D3E3E205B25AD
:101E3000735D5B25645DB7A2CBCDB3ACCAB10A00BC
:101E4000003001403C3C2D464C4153482D44454216
:101E500055472D3E3E205B25735D5B25645DBDD3FC
:101E6000CAD5B3ACCAB10A007047000070B50546C8
:101E700000242846FFF7C4FB0020FFF7C3FD0E48EF
:101E800003880E48028800210846FFF7C7F800F0D3
:101E9000DFF900BF0CE004EB8402094B03EB820086
:101EA00004EB840203EB8202D1688847601CC4B251
:101EB000042CF0DB70BD00000600002004000020B0
:101EC0001C01002010B500F001F810BD0CB5002079
:101ED000019000903348006840F480303149086038
:101EE00000BF3048006800F4003000900198401CAA
:101EF0000190009818B90198B0F5A06FF1D1294868
:101F0000006800F4003010B10120009001E00020D2
:101F100000900098012843D12348006840F0100049
:101F2000214908600846006820F003000860084660
:101F3000006840F0020008601A484068194948608B
:101F40000846406848600846406840F48060486041
:101F50000846406820F47C1048600846406840F419
:101F6000E81048600846006840F08070086000BFD4
:101F70000C48006800F000700028F9D0094840685B
:101F800020F00300074948600846406840F002001E
:101F9000486000BF0348406800F00C000828F9D1F1
:101FA0000CBD0000001002400020024070470000FD
:101FB00010B51348006840F0010011490860084658
:101FC0004068104908400E494860084600680E49BC
:101FD00008400B4908600846006820F4802008602B
:101FE0000846406820F4FE0048604FF41F008860F7
:101FF000FFF768FF4FF000600449086010BD000063
:10200000001002400000FFF8FFFFF6FE08ED00E0C0
:1020100021B1028842F00102028004E002884FF6FA
:10202000FE731A400280704731B1B0F8442042F488
:102030000042A0F8442005E0B0F84420C2F30E02AC
:10204000A0F844207047000070B50024002200234F
:10205000058C4FF6FE7635400584028C8388048B10
:102060004FF68F752C40B51E2C400D882C43751EE5
:102070002A400D892A434D882A43144DA8420BD08B
:10208000134DA84208D0134DA84205D0124DA842C6
:1020900002D0124DA84213D14FF6F7752A404D8950
:1020A0002A434FF6FB752A408D882A434FF6FF6579
:1020B0002B404FF6FF552B408D892B43CD892B4369
:1020C00083800483CD888586028470BD002C014006
:1020D00000340140004001400044014000480140FC
:1020E0000A460021018B4FF6F77319401143018313
:1020F00070470000002202881D4B98420ED01D4BF5
:1021000098420BD0B0F1804F08D01B4B984205D0BD
:102110001A4B984202D01A4B984204D14FF68F7353
:102120001A404B881A43174B984207D0164B9842D7
:1021300004D04FF6FF431A40CB881A4302808B88A5
:1021400083850B8803850A4B98420BD0094B984234
:1021500008D00E4B984205D00D4B984202D00D4B43
:10216000984201D10B7A03860123838270470000D5
:10217000002C0140003401400004004000080040F1
:10218000000C0040001000400014004000400140DE
:10219000004401400048014070B505460E46002449
:1021A00050E004EB8400294901EB80008088A842BC
:1021B0002CDB04EB840001EB8000C088B04225DBFF
:1021C00004EB840001EB80004088B0421EDC04EB8D
:1021D000840031F82000A84218DC04EB840001EBF5
:1021E0008000007A60BB012004EB8401174A02EBF7
:1021F0008101087204EB8402144B03EB820004EBB0
:10220000840203EB8202D168884719E004EB840062
:102210000E4901EB8000007A012811D1002004EB67
:1022200084010A4A02EB8101087204EB8402074B25
:1022300003EB820004EB840203EB8202D16888473F
:10224000601CC4B2042CACDB70BD00001C0100207B
:102250001E202749088048805A2088803C20C8805A
:1022600041F63F704881002008722248C860224829
:102270000861C82088821E211D48C1824FF48271E6
:1022800001833C21418340F21F31C183002101774A
:1022900018490162184941621E20154908858721A5
:1022A000134841857A218185A521C1850521418673
:1022B000002180F830101149416311498163C82021
:1022C0000B49888787210A48C1874FF49271A0F88B
:1022D0004010A521A0F842100221A0F846100021CC
:1022E00080F84410054981640549C16470470000C5
:1022F0001C010020AD0A00083D090008A1090008E2
:102300000509000870B505460E4600243BE004EBC5
:1023100084001F4901EB80008088A84231DD04EB76
:10232000840031F82000A8422BDA04EB840001EB92
:102330008000C088B04224DD04EB840001EB800003
:102340004088B0421DDA002004EB8401104A02EB01
:102350008101087204EB84020D4B03EB820004EB55
:10236000840203EB8202D168884704EB8402084BA5
:1023700003EB820004EB840203EB820211698847BD
:1023800003E0601CC4B2042CC1DB00BF70BD0000C0
:102390001C01002021B1828942F40052828104E0B4
:1023A00082894DF6FF731A408281704700B585B06F
:1023B00001210420FFF7C6FB01218803FFF7C2FBC0
:1023C0004FF40070ADF8100018208DF813000320B2
:1023D0008DF8120004A91748FEF746FD4FF48060FF
:1023E000ADF8100004208DF8130004A91148FEF781
:1023F0003BFD4FF4E13000900020ADF80400ADF853
:102400000600ADF80800ADF80C000C20ADF80A008D
:102410006946094800F044F8FFF72DFB012240F21D
:102420002551054800F017F801210348FFF7B2FFD6
:1024300005B000BD00080140003801400246002000
:10244000B1F5007F00D100BF13880B400BB1012014
:1024500000E000207047F0B5034600240026002568
:10246000002040F66A17B94200D100BF1846C1F3F8
:10247000421401F01F06012707FA06F5012C01D1CD
:102480000C3004E0022C01D1103000E014301AB1FD
:1024900007682F43076002E00768AF430760F0BD9D
:1024A0002DE9F04786B005460E460024A24600BF3F
:1024B000A1460027B08900B100BF2F462C8A4CF6F8
:1024C000FF700440F08804432C82AC894EF6F31070
:1024D0000440B08831890843718908430443AC81C2
:1024E000AC8A4FF6FF400440B0890443AC8201A897
:1024F000FFF738FB1F48874202D1DDF810A001E04A
:10250000DDF80CA0A88900F4004040B10AEBCA0035
:1025100000EB0A1031684900B0FBF1F807E00AEB64
:10252000CA0000EB0A1031688900B0FBF1F86420A2
:10253000B8FBF0F004012009642101FB1089A8898F
:1025400000F4004040B1322000EBC900B0FBF1F0D4
:1025500000F00700044308E0322000EB091064217A
:10256000B0FBF1F000F00F0004432C8106B0BDE891
:10257000F087000000380140C1F3080282807047F4
:1025800000BFFEE72DE9F04105460C46164601273F
:10259000B4F90010B4F91020891AB4F90A30B4F96A
:1025A00012209A1A5143B4F90820B4F91030D31A02
:1025B000B4F902C0B4F91220ACEB020203FB121012
:1025C000FDF794FFB0610021B069FDF7F5FF01D17F
:1025D0000027C3E0B5F90010B5F91020891AB4F945
:1025E0000A30B4F912209A1A5143B5F90820B5F906
:1025F0001030D31AB4F902C0B4F91220ACEB0202C5
:1026000003FB1210FDF772FF3060B4F90010B4F94B
:102610001020891AB5F90820B5F91030D21A5143A3
:10262000B5F90020D21AB4F90830B4F910C0A3EB00
:102630000C0302FB1310FDF759FF7060B4F9101082
:10264000B5F908205143B4F90820B5F9103002FB60
:102650001311B4F902205143B4F900205A43B4F9DC
:102660001030B5F900C003FB1C23B4F90A2003FBAA
:102670000212B4F9081001FB0CF1B4F90030B5F9FD
:1026800008C003FB1C13B4F9121003FB0120FDF773
:102690002DFFB060B5F90220B5F91210511AB4F946
:1026A0000A30B4F912209A1A5143B5F90A30B5F933
:1026B00012209B1AB4F902C0B4F91220ACEB02024A
:1026C00003FB1210FDF712FFF060B4F90010B4F92B
:1026D0001020891AB5F90A30B5F912209A1A514317
:1026E000B5F90230B5F912209A1AB4F90830B4F9E4
:1026F00010C0A3EB0C0302FB1310FDF7F7FE3061D3
:10270000B4F91010B5F90A205143B4F90830B5F9FD
:10271000122003FB1211B4F902205143B4F9002036
:10272000B5F912305A43B4F91030B5F902C003FBC1
:102730001C23B4F90A2003FB0213B4F9081001FBAF
:102740000CF1B4F900C0B5F90A200CFB1212B4F96F
:10275000121002FB0130FDF7C9FE70613846BDE87A
:10276000F08101B5002007E00C2100BF0A1EA1F195
:102770000103D9B2FAD1401C00998842F4D308BDB4
:102780002DE9FC5F05460C460126684600F0BEF8C0
:10279000002865D0BDF90200FDF7A8FE8346324847
:1027A000007800EB400004EBC00041685846FDF79C
:1027B0004CFD8146BDF90000FDF798FE83462A488E
:1027C000007800EB400054F830105846FDF73DFD0E
:1027D00082464946FDF7E1FC80462348007800EB3D
:1027E000400004EBC00081684046FDF7D6FC074678
:1027F000FDF785FE00B22880BDF90200FDF776FEE8
:1028000083461948007800EB400004EBC0000169E2
:102810005846FDF71AFD8146BDF90000FDF766FE3A
:1028200083461148007800EB400004EBC000C1680B
:102830005846FDF70AFD82464946FDF7AEFC804644
:102840000948007800EB400004EBC00041694046B5
:10285000FDF7A3FC0746FDF752FE00B2688000E0DA
:1028600000263046BDE8FC9F0800002008B5012185
:102870006020FFF767F90120ADF800008DF8020035
:1028800010208DF8030069461A48FEF7EDFA04207F
:10289000ADF8000069461748FEF7E6FA0820ADF8E3
:1028A000000001208DF8020048208DF803006946E1
:1028B0001048FEF7D9FA4FF40050ADF8000001209F
:1028C0008DF8020010208DF8030069460A48FEF7D3
:1028D000CBFA4FF400510848FEF75AFB1020ADF830
:1028E000000048208DF8030069460248FEF7BCFA54
:1028F00008BD0000001801400014014010B5044656
:10290000204600F05FFC00F0C1F810BD2DE9F04753
:102910008CB00646002528216846FDF72CFC00BF38
:102920000AA90BA800F09EF8BDF92C002DF815009F
:10293000BDF9281005A820F81510681CC5B2102193
:102940004648FEF71CFB08B90A2DE9DB1021434875
:10295000FEF715FB10B10020414908700A2D7BD10C
:10296000BDF90070B846BDF91490CA4601240EE0C6
:102970003DF91400B84202DA3DF9147005E03DF962
:102980001400404501DD3DF91480601CC4B20A2CDE
:10299000EEDB012412E005A830F91400484503DA03
:1029A00005A830F9149007E005A830F91400504547
:1029B00002DD05A830F914A0601CC4B20A2CEADBC1
:1029C000BDF90000BDF902100844BDF90410084427
:1029D000BDF906100844BDF908100844BDF90A10F5
:1029E0000844BDF90C100844BDF90E100844BDF9A7
:1029F00010100844BDF912100844C01BA0EB0800D9
:102A0000C01000B23080BDF91410BDF916000144A9
:102A1000BDF918000144BDF91A000144BDF91C00BC
:102A20000144BDF91E000144BDF920000144BDF977
:102A300022000144BDF924000144BDF926000844E8
:102A4000A0EB0900A0EB0A00C01000B270800120CA
:102A50000CB0BDE8F087FFE70020F9E7001801405F
:102A6000F40000202DE9F04104460D469020FFF7C8
:102A700045FF06B20120FFF774FED020FFF73EFFAE
:102A800007B226802F80BDE8F081000070B50025D8
:102A900004211148FEF77CFA01210F48FEF77AFA6B
:102AA000002414E001210C48FEF772FA08210A48BC
:102AB000FEF765FA0646C4F10B0006FA00F028435B
:102AC00085B201210448FEF765FA601CC4B20C2CE3
:102AD000E8DB284670BD00000018014010B5002456
:102AE0002748007820B1012811D002283FD12FE0DB
:102AF00010212448FEF743FA20B90120204908702C
:102B0000002403E000201E490870002434E0102156
:102B10001C48FEF734FAA0B91B480068401C1A494B
:102B2000086008460068022806D9002008600220D4
:102B30001349087001240AE001201149087000249B
:102B400005E00020104908600D490870002413E0DA
:102B500010210C48FEF713FA20B90220084908702A
:102B6000012403E0002006490870002404E000204E
:102B700003490870002400BF00BF204610BD0000BC
:102B8000F500002000180140F800002010B50446B0
:102B9000B4F90400401C20B9B4F90400401C00B989
:102BA00010BD628891B2228890B2FFF7F5FA00BF9B
:102BB000F6E7000010B5FFF791FF01281AD10121B7
:102BC0001848FEF7E5F920211648FEF7E3F902213F
:102BD0001448FEF7DFF914491448FFF7D1FD1348F4
:102BE000FFF7D4FF114800881049888008464088C4
:102BF000C88015E001210B48FEF7CCF920210948D7
:102C0000FEF7C8F902210748FEF7C2F9074800F0AD
:102C10000FF84FF0FF300549088048808880C88051
:102C200010BD0000000C014034000020FC0000201A
:102C30007CB50446B4F90400401C20B9B4F9040082
:102C4000401C00B97CBD628891B2228890B2FFF727
:102C500059FB1B4802881BA1684600F0F5FA0021C9
:102C60004FF6FF70FEF7D4FEFEF7C6FE00252B469A
:102C70004FF4A07229462846FEF7D0F94FF6FF71AF
:102C80004FF47840FEF7C4FEFEF7B6FE6A462946CA
:102C90007820FEF7A5FA0C48008800EB800042007F
:102CA00008A1684600F0D0FAFEF7A6FE6A4629465B
:102CB000F820FEF795FA054800F090FC00BFC1E748
:102CC000000000202564200002000020FFFF0F000C
:102CD0002DE9F04FB9B004464FF00009CA46002074
:102CE0001E901D900026FE48FEF79CFE00211F202E
:102CF000FEF78EFE2046FEF783FCFA48008880101F
:102D0000ADF85400F84800888010ADF85600BDF8C2
:102D10005400ADF85C00F448008800EB40008010DF
:102D200001B215A84181EF48008800EB40008010F7
:102D300000B2ADF8640015A841894182BDF8640075
:102D4000ADF86C00BDF8561015A84183002558E079
:102D5000E5480388E348028800210846FEF75EF94B
:102D6000E2A6FEF749FE8088DE49098891FBF0F86B
:102D70003046FDF70BFAA8EB0000470820233A463F
:102D8000E0A11FA8009600F05FFAD7490988481013
:102D90001FA9FEF7F1F9FEF72FFE8088D1490988B7
:102DA00091FBF0F0471E681C009007EBD7704210B3
:102DB0002023D6A11FA800F047FAFEF71DFEC08809
:102DC000C9490988C0EB610087B21FA93846FEF7E0
:102DD000D3F9D048FFF7C5FC15AA02EBC50252880B
:102DE00091B215AA32F8352090B2FEF753FA00BF1F
:102DF0000DA901EBC500FFF789FD0028F8D0681C7C
:102E0000C5B2042DA4DB06AA0DA915A8FFF7BAFBCD
:102E100000210C98FDF7D0FB00D143E1BDF94E0035
:102E2000FDF764FB03900799FDF70FFA8346BDF9A0
:102E30004C00FDF75BFB03900699FDF706FA594637
:102E40000490FDF7AAF980460899FDF7A6F90590C8
:102E50000C99FDF72CFA0746FDF76AFB1FFA80F97B
:102E6000BDF94E00FDF742FB03900A99FDF7EDF91D
:102E70000590BDF94C00FDF739FB03900999FDF76A
:102E8000E4F904900599FDF788F983460B99FDF75D
:102E900084F980460C99FDF70AFA0746FDF748FBCE
:102EA0001FFA80FABDF96C00484504DABDF96C00E0
:102EB000A9EB000003E0BDF96C00A0EB090080B2B3
:102EC0001E90BDF96E00504504DABDF96E00AAEB04
:102ED000000003E0BDF96E00A0EB0A0080B21D9077
:102EE0001E980F2802DC1D980F2800DDDAE00C98F0
:102EF000FDF732FBCDE902010698FDF72DFB0746F1
:102F00000022854BFDF711FACDE90001DDE902232E
:102F1000FDF77DFACDE90401FDF731FB04EB440137
:102F20007E4A42F831000C98FDF716FBCDE902010C
:102F30000798FDF711FB07460022774BFDF7F5F9DF
:102F4000CDE90001DDE90223FDF761FACDE90401D5
:102F5000FDF715FB04EB4401704A02EBC101486028
:102F60000C98FDF7F9FACDE902010898FDF7F4FA9B
:102F700007460022684BFDF7D8F9CDE90001DDE9ED
:102F80000223FDF744FACDE90401FDF7F8FA04EB5A
:102F90004401624A02EBC10188600C98FDF7DCFA3B
:102FA000CDE904010998FDF7D7FA00225A4BCDE983
:102FB0000001FDF7BAF9CDE90201DDE90423FDF7CF
:102FC00026FA0746FDF7DBFA04EB4401534A02EB0D
:102FD000C101C8600C98FDF7BFFACDE904010A9859
:102FE000FDF7BAFA00224C4BCDE90001FDF79DF93F
:102FF000CDE90201DDE90423FDF709FA0746FDF7F3
:10300000BEFA04EB4401454A02EBC10108610C9889
:10301000FDF7A2FACDE902010B98FDF79DFA002217
:103020003D4BCDE90001FDF780F90746DDE90223BC
:10303000FDF7EDF9CDE90401FDF7A1FA04EB440138
:10304000364A02EBC10148612748038825480288B7
:1030500000210846FDF7E2FF4FF4FC60FEF7E8FCB4
:103060002FA6FEF7C9FC80881E49098891FBF0F85D
:103070003046FDF78BF8A8EB0000470820233A46BE
:1030800020A11FA8009600F0DFF817490988481012
:103090001FA9FEF771F82748FFF763FB012039B03D
:1030A000BDE8F08F104803880E48028800210846CA
:1030B000FDF7B4FF4FF47840FEF7BAFC1EA6FEF70A
:1030C0009BFC80880749098891FBF0F83046FDF7A2
:1030D0005DF8A8EB0000470820233A4609A133E039
:1030E000140000200400002006000020546F7563C7
:1030F000682043616C696272617465202E2E2E2EE9
:103100002E2E0000252A632573000000252A632542
:1031100064000000E09304000000F03F3400002051
:1031200043616C69627261746520537563636564A1
:103130000000000040420F0043616C6962726174DC
:1031400065206661696C00001FA8009600F07CF89D
:103150001649098848101FA9FEF70EF814A6FEF7B5
:103160004BFC80881549098891FBF0F83046FDF743
:103170000DF8A8EB0000470820233A46AFF27C0187
:103180001FA8009600F060F8FEF736FCC0880749DB
:10319000098800EB610087B21FA93846FDF7ECFFF4
:1031A0000748FFF7DEFA002079E70000060000205C
:1031B00074727920616761696E000000040000206C
:1031C00040420F0070B5054604211648FDF7E0FEA9
:1031D00001211448FDF7DCFE00241FE0C4F10700C4
:1031E00045FA00F000F0010020B104210D48FDF780
:1031F000D1FE03E004210B48FDF7CAFE0520FFF7CE
:10320000B0FA01210748FDF7C5FE0520FFF7A9FA2E
:1032100001210448FDF7BCFE601CC4B2082CDDDBB4
:1032200070BD0000001801400FB4054B10B503A994
:10323000044A029800F02CF810BC5DF814FB000062
:10324000E9350008180100200FB4084B10B504A997
:1032500002AA039800F01CF8044602A9002000F01E
:10326000B8F9204610BC5DF814FB0000D335000807
:1032700002E008C8121F08C1002AFAD1704770473F
:10328000002001E001C1121F002AFBD1704700009D
:103290002DE9FF4F8BB088460546002606E025281D
:1032A0000BD0DDE90D1290476D1C761C28780028A4
:1032B000F5D10FB03046BDE8F08F0024A146A246FC
:1032C0000122AE4900E0044315F8013F203B02FA19
:1032D00003F00842F7D128782A2810D06FF02F0287
:1032E0002878A0F13001092915D809EB890102EBF2
:1032F000410144F0020400EB01096D1CF0E758F8AD
:10330000041B5FEA010903D544F40054C9F1000924
:1033100044F002046D1C28782E2817D115F8010FEF
:1033200044F004042A280ED06FF02F022878A0F170
:10333000300109290AD80AEB8A0102EB410100EBAE
:10334000010A6D1CF2E758F804AB6D1C28786C2854
:103350000FD006DC4C2817D068280DD06A2814D16D
:1033600004E0742810D07A280FD10DE044F4001442
:103370000AE044F4801401E044F440146978814286
:1033800002D104F580146D1C6D1C2878692865D065
:1033900006DC00288DD0632827D0642806D15DE0A4
:1033A0006E2808D073282AD0752877D0DDE90D1251
:1033B0009047761CE0E0C4F30250022809D00328AD
:1033C0000DD0D8F8001004280DD00E6008F10408C4
:1033D000D2E0D8F80010F217C1E90062F6E7D8F899
:1033E00000100E80F2E70E70F0E718F8041B8DF85D
:1033F000001000208DF80100EB46012003E058F892
:1034000004BB4FF0FF3061074FF0000701D40AE022
:103410007F1C57450DDA8742FADB1BF8071000299D
:10342000F6D106E07F1C8742FCDB1BF80710002961
:10343000F8D1DDE90D23A9EB07008146214600F014
:10344000B1F83044C61904E0DDE90D121BF8010B98
:1034500090477F1EF8D22146484688E058F8040B72
:10346000C4F302514FF00A0B032900D100B2042922
:1034700000D140B2002802DA40422D2102E02105AD
:1034800005D52B218DF82410012104E006E0E10789
:1034900010D02021F6E708AF089113E058F8040B8C
:1034A000C4F302514FF00A0B032900D180B2042962
:1034B00000D1C0B20021EEE75946FDF787F8303160
:1034C00007F8011D0028F7D1ADEB070000F1200B34
:1034D000600702D524F4803401E04FF0010ADA4598
:1034E00002DDAAEB0B0000E00020824600EB0B019E
:1034F00008980144A9EB01000A90E00306D4DDE935
:103500000D2321460A9800F04DF806444FF00009BB
:1035100008E009A911F80900DDE90D12904709F149
:103520000109761C08998945F3DBE0030CD5DDE938
:103530000D2321460A9800F035F8064404E0DDE941
:103540000D1230209047761CBAF10001AAF1010A51
:10355000F5DC05E0DDE90D1217F8010B9047761C4C
:10356000BBF10001ABF1010BF4DC0A982146DDE967
:103570000D2300F005F806446D1C97E609280100AC
:103580002DE9F041044600251E461746880404D460
:1035900005E039462020B0476D1C641EF9D5284649
:1035A000BDE8F0812DE9F041044600251E46904615
:1035B000C80301D5302700E02027880404D505E0A2
:1035C00041463846B0476D1C641EF9D52846BDE813
:1035D000F0810A68531C0B601070704700BF011E19
:1035E000A0F10100FBD1704770B504460D46E1B271
:1035F0000548FEF7C1FF00BF80210348FEF71EFF0C
:103600000028F9D0204670BD0038014088B0FEF790
:1036100015FAFEF751F8FFF729F9FDF7EBF8FEF779
:10362000C5FE16A0FFF700FE0320FDF7E9FF00210D
:103630000320FDF721F916480078FEF717FC15481E
:103640000088154991FBF0F414480388224614A120
:103650006846FFF7F9FD4FF6FF714FF47840FEF72B
:10366000D7F9FEF7C9F900246A4621465020FDF734
:10367000B7FD01E0FFF79EFAFCE70000585054BF89
:10368000D8D6C6B4A5C6C1CAB5D1E90D0A00000096
:10369000080000200000002000127A000200002034
:1036A000C6B5C2CA3A25642020487A20D5BCBFD509
:1036B000B1C83A2564202525000000000000000064
:1036C00000000000000000000000000000000018E2
:1036D0001818181818080008180000000000003416
:1036E000242424000000000000000000000000006E
:1036F00016247F2424247E242400000000000008D7
:103700003E6848681C1612127C1010000000006110
:10371000D296740810162949C60000000000000067
:103720003C646438724ACE467F00000000000018F6
:10373000181818000000000000000000000000043D
:10374000081810303030301010180C040000002021
:103750001008080C0404040C0818102000000008CD
:103760000A341C6A0800000000000000000000008D
:1037700000001818187F181818000000000000003A
:1037800000000000000000181808300000000000D1
:1037900000000000003C00000000000000000000ED
:1037A00000000000000000181800000000000002E7
:1037B00006040C0808101020204000000000000043
:1037C0003C6642475B7342663C000000000000001C
:1037D00018784808080808087E000000000000006B
:1037E0003C460606040810207E0000000000000091
:1037F0007C0606043C0202067C000000000000007B
:103800000C1C14246444FF040400000000000000A9
:103810007E6060607E0202067C0000000000000006
:103820001E306048764242623C000000000000000A
:103830007E0206040C081810300000000000000092
:103840003C6242361C6642423C0000000000000020
:103850003C664242661A0204780000000000000044
:1038600000001818000000181800000000000000F8
:1038700000001818000000181808300000000000B0
:10388000000004183060100C06000000000000006A
:10389000000000007E007E0000000000000000002C
:1038A0000000301804060C1020000000000000305A
:1038B0001C06060618100010100000000000001C76
:1038C000224141DDB5A5A5AF94C0403C00000000F9
:1038D000181C342426627E43C10000000000000052
:1038E0007C4642467C4242427C00000000000000D0
:1038F0001E204040404040603E00000000000000AC
:103900007C464243434342467800000000000000EA
:103910007E6060607E6060607E00000000000000ED
:103920007E6060607E6060606000000000000000FB
:103930001E604040CE4242623E0000000000000097
:10394000424242427E4242424200000000000000E9
:103950007E181818181818187E00000000000000C3
:103960007C04040404040444780000000000000007
:103970004244485070584C4442000000000000008F
:1039800020202020202020203E00000000000000F9
:103990006266675F5B5BC1C1C100000000000000A0
:1039A000626272525A4A4E46460000000000000011
:1039B0003C6243C3C3C343623C00000000000000FC
:1039C0007C46424246784040400000000000000033
:1039D0003C6243C3C3C343623C180F0000000000B5
:1039E0007C6662667C6C6466620000000000000019
:1039F0003E6040601C0602027C00000000000000E7
:103A00007F18181818181818180000000000000077
:103A100042424242424242623C000000000000003A
:103A2000C14342622624341C18000000000000003C
:103A3000C1C141495B5B7666660000000000000082
:103A400043663418181C2466C30000000000000000
:103A5000C14266341C18181818000000000000004D
:103A60007E02040C181020607E0000000000001C84
:103A700010101010101010101010101C000000403A
:103A80002020101008080C04060200000000003C72
:103A90000C0C0C0C0C0C0C0C0C0C0C3C0000000066
:103AA000181C24620000000000000000000000005C
:103AB0000000000000000000000000FF00000020E7
:103AC00010000000000000000000000000000000E6
:103AD00000003C06023E42467A0000000000004022
:103AE00040405C62424242427C0000000000000014
:103AF00000001E20604060203E0000000000000228
:103B000002023E62424242663A00000000000000AB
:103B100000003C62427E40603E0000000000000F5A
:103B20001810107E1010101010000000000000008F
:103B300000003F66426658403E43423C0000004061
:103B400040405C62424242424200000000000018D5
:103B500018007808080808087E000000000000042B
:103B60000C007C040404040404040C7800000060CD
:103B70006060626C78706864620000000000007829
:103B800008080808080808087E0000000000000077
:103B90000000764B4B4B4B4B4B00000000000000ED
:103BA00000005C624242424242000000000000000D
:103BB00000003C62424342623C0000000000000002
:103BC00000005C62424242427C40404000000000F3
:103BD00000003E62424242663A02020200000000D9
:103BE00000006E7263606060600000000000000012
:103BF00000003E20203C06027C0000000000000087
:103C00001010FE10101010101E0000000000000028
:103C100000004242424242663A00000000000000BA
:103C20000000434266243418180000000000000021
:103C30000000C1C15B5A5E66660000000000000023
:103C4000000062261C181C26620000000000000014
:103C5000000043426624341C181830E000000000C5
:103C600000007E060C1810207E0000000000000EF0
:103C700018101010307010101010180E00000808E6
:103C800008080808080808080808080800000030A4
:103C9000180808080C0E0808080818300000000072
:103CA00000000000714B0600000000000000000052
:103CB0000000000000000000000000000000000004
:103CC00000000000000000000000000000000000F4
:103CD00000000000000000000000000000000000E4
:103CE000000000000000038001800180018001804D
:103CF000018001800180018001800000000003C07C
:103D000003C00000000000000000000000000000F0
:103D10000000000000000E700E700E700C300000ED
:103D20000000000000000000000000000000000093
:103D30000000000000000000000000000000000083
:103D400000000000000000000618063806307FFE64
:103D50000C300C300C300C307FFE0C601C60186096
:103D600018600000000000000000000000000000DB
:103D70000000000000C000C00FF83CC831C0318016
:103D80003D801F8003F001F8031C030C031C3FF867
:103D90003FE00700060000000000000000000000F7
:103DA000000000001C007E0E630C631863307E6010
:103DB00000C001800300077C0EE61CC618C630C692
:103DC000607C000000000000000000000000000017
:103DD0000000000000000FE01CF0387038701C601C
:103DE0001FC00F003F8C71CC60EC607C70383CFCD5
:103DF0001FCE0000000000000000000000000000D6
:103E000000000000000003C001800180018000006C
:103E100000000000000000000000000000000000A2
:103E20000000000000000000000000000000000092
:103E300000000000003000E001C001800300070026
:103E4000060006000E000E000E000E000600070021
:103E50000300038001C000E000300000000000000B
:103E6000000000000C0006000380018001C000E09B
:103E7000006000600070007000700060006000E092
:103E800000C00180038006000C000000000000005C
:103E9000000000000000018011881DB803C007E089
:103EA0003DBC01880180000000000000000000000F
:103EB0000000000000000000000000000000000002
:103EC00000000000000000000000000001800180F0
:103ED0000180018001807FFE0180018001800180DE
:103EE00000000000000000000000000000000000D2
:103EF00000000000000000000000000000000000C2
:103F000000000000000000000000000003C003C02B
:103F100001C001C003801F0000000000000000007D
:103F20000000000000000000000000000000000091
:103F30000000000000000FF0000000000000000082
:103F40000000000000000000000000000000000071
:103F50000000000000000000000000000000000061
:103F600000000000000000000000000003C003C0CB
:103F700003C000000000000000000000000000007E
:103F8000000000000000001800380030006000E071
:103F900000C001C001800300030006000E000C00F9
:103FA0001C001800300000000000000000000000AD
:103FB00000000000000001800FF01C38381C301C8D
:103FC000707E70EE738E7E0E7C0C300C381C1E786A
:103FD0000FE00000000000000000000000000000F2
:103FE000000000000000000007C01FC039C001C071
:103FF00001C001C001C001C001C001C001C03FFC3F
:104000003FFC000000000000000000000000000075
:1040100000000000000003801FF01838003800186E
:1040200000380038007001E0038007001C003FFCEE
:104030003FFC000000000000000000000000000045
:1040400000000000000007801FF000380038003832
:10405000003007E007F00038001C001C001820F8B2
:104060003FE0000000000000000000000000000031
:10407000000000000000000000F001B00330073035
:104080000E301C30383070307FFE7FFE0030003044
:1040900000300000000000000000000000000000F0
:1040A00000000000000000001FF8180018001800B1
:1040B00018001FE000F8001C001C001C003800F075
:1040C0001FC0000000000000000000000000000011
:1040D000000000000000000003F80F001C001800A2
:1040E000300037F83C3C300C300C380C381C1E3893
:1040F0000FF00000000000000000000000000000C1
:1041000000000000000000003FFC001C0018003808
:104110000070006000E001C001800380070006001D
:104120000E00000000000000000000000000000081
:1041300000000000000003C01FF8381C381C381CA9
:104140001C380FF007F01C78381C300C381C3C3839
:104150000FF0000000000000000000000000000060
:1041600000000000000003801FF03838301C701C75
:10417000700C380C1FFC0FCC001C001800701FE0E6
:104180001F80000000000000000000000000000090
:10419000000000000000000000000000000003C05C
:1041A00003C00180000000000000000003C003C045
:1041B00003C000000000000000000000000000003C
:1041C000000000000000000000000000000003C02C
:1041D00003C00180000000000000000003C003C015
:1041E00001C001C003800F000000000000000000BB
:1041F000000000000000000000000000003800F097
:1042000001C007001E0038000E00078001C00070CA
:10421000003000000000000000000000000000006E
:10422000000000000000000000000000000000008E
:1042300000003FFC000000003FFC3FFC00000000CD
:10424000000000000000000000000000000000006E
:104250000000000000000000000000001C000F0033
:10426000038001E00078001C007001E003800E0074
:104270000C00000000000000000000000000000032
:104280000000000000000FC000F0003800380038C7
:10429000003803F0038003000300000000000780E3
:1042A0000780000000000000000000000000000087
:1042B0000000000000E007F80C0C18063006700340
:1042C00063F36633C673CC63CC62CC66CCE6C7FCC2
:1042D000E0006000700038101FF0000000000000D7
:1042E000000000000000000003C007E006E00E70C0
:1042F0000E700C301C3818183FFC3FFC700E600E1E
:10430000E0070000000000000000000000000000C6
:1043100000000000000000003FF03838381C381C56
:1043200038383FF03FF8381C380C380C381C3FF850
:104330003FE000000000000000000000000000005E
:1043400000000000000000E007FC1E0438003800F8
:104350003000700070007000300038003C001F9C7E
:1043600007FC00000000000000000000000000004A
:1043700000000000000000003FF03078301C300CDE
:10438000300E300E300E300E300E301C30383FF014
:104390003FC000000000000000000000000000001E
:1043A00000000000000000001FF8180018001800AE
:1043B00018001FF81FF818001800180018001FF840
:1043C0001FF80000000000000000000000000000D6
:1043D00000000000000000001FF81800180018007E
:1043E00018001FF81FF8180018001800180018000F
:1043F00018000000000000000000000000000000A5
:1044000000000000000000F007FC1E04380030002F
:104410007000700070FC700C700C300C380C1F1C9D
:1044200007FC000000000000000000000000000089
:104430000000000000000000300C300C300C300C8C
:10444000300C3FFC3FFC300C300C300C300C300C8E
:10445000300C000000000000000000000000000020
:1044600000000000000000003FFC0180018001808E
:1044700001800180018001800180018001803FFC7A
:104480003FFC0000000000000000000000000000F1
:1044900000000000000000001FF00030003000307D
:1044A00000300030003000300030003000701DE07F
:1044B0001FC000000000000000000000000000001D
:1044C0000000000000000000381C387038E039C0DF
:1044D0003B803F003F003B8039C038E038703838BF
:1044E000381C000000000000000000000000000078
:1044F00000000000000000001C001C001C001C004C
:104500001C001C001C001C001C001C001C001FFCCC
:104510001FFC000000000000000000000000000080
:104520000000000000000000381C7C3C6C3E6E6EF9
:10453000666E66CE63C66386618660066006600648
:104540006006000000000000000000000000000005
:1045500000000000000000003C0C3C0C3E0C360C3F
:10456000330C338C318C31CC30EC306C307C303CC3
:10457000301C0000000000000000000000000000EF
:1045800000000000000001C00FF81C3C381C700E39
:10459000700E60066006700E700E700C381C1E786F
:1045A0000FE000000000000000000000000000001C
:1045B00000000000000000003FF0383C381C380CC0
:1045C000380C381C38783FE03800380038003800A4
:1045D00038000000000000000000000000000000A3
:1045E00000000000000001C00FF81C3C381C700ED9
:1045F000700E60066006700E700E700C381C1E780F
:104600000FE0018001C000FF003C0000000000003E
:1046100000000000000000003FF03838381838185B
:10462000383838F03FC038E0387038383838381CFF
:10463000380E000000000000000000000000000034
:1046400000000000000001E00FF8380038003800DA
:104650003C001F8003F00078001C001C001C387810
:104660003FE000000000000000000000000000002B
:1046700000000000000000007FFE0180018001803A
:104680000180018001800180018001800180018022
:104690000180000000000000000000000000000099
:1046A0000000000000000000300C300C300C300C1A
:1046B000300C300C300C300C300C300C381C1C38EA
:1046C0000FF00000000000000000000000000000EB
:1046D0000000000000000000E006700E700E381CA4
:1046E000381C1C181C380C300E70066007E003C024
:1046F00003C00000000000000000000000000000F7
:104700000000000000000000600660066006600611
:104710006186638673C673CE766C366C3C3C3C3CDB
:10472000381C000000000000000000000000000035
:104730000000000000000000301C38181C380E700B
:1047400007E003C003C007E00E701C381838381C9F
:10475000700E0000000000000000000000000000DB
:104760000000000000000000700E700C381C1C38A7
:104770000E70066007E003C00180018001800180A7
:1047800001800000000000000000000000000000A8
:1047900000000000000000003FFC001C003800701A
:1047A00000E001C0038007000E000C0018003FFC71
:1047B0003FFC0000000000000000000000000000BE
:1047C0000000000007F007F00600060006000600E3
:1047D00006000600060006000600060006000600A9
:1047E000060006000600060007F0000000000000BA
:1047F00000000000000018001C000C00060007006C
:1048000003000380018001C000C000600070003020
:1048100000380018000C000000000000000000003C
:10482000000000000FE00FE000600060006000602A
:104830000060006000600060006000600060006078
:1048400000600060006000600FE0000000000000F9
:10485000000000000000000003C006C006600C302D
:104860001818301C000000000000000000000000CC
:104870000000000000000000000000000000000038
:104880000000000000000000000000000000000028
:104890000000000000000000000000000000000018
:1048A0000000000000000000FFFF0000000000000A
:1048B0000000000000001E00038000000000000057
:1048C00000000000000000000000000000000000E8
:1048D00000000000000000000000000000000000D8
:1048E00000000000000000000000000000001FF0B9
:1048F0001038001C001C0FFC1C1C381C381C3CFC15
:104900001FDC0000000000000000000000000000AC
:1049100000000000000038003800380038003BF884
:104920003E1C3C1C380C380C380C380C381C3C78BD
:104930001FE0000000000000000000000000000078
:10494000000000000000000000000000000007F868
:104950000E001C0038003800380038001C000F180A
:1049600007F8000000000000000000000000000048
:10497000000000000000001C001C001C001C0FFCBC
:104980001C1C381C301C301C301C301C383C1CFCDF
:104990000F9C00000000000000000000000000006C
:1049A00000000000000000000000000000000FF008
:1049B0001C38381C300C3FFC3000300038001E0C16
:1049C00007FC0000000000000000000000000000E4
:1049D00000000000003C01FE038003000300030010
:1049E0007FFC7FFC030003000300030003000300BF
:1049F00003000000000000000000000000000000B4
:104A000000000000000000000000000000000FFE99
:104A10001C383818381818381FF03B8030003FF029
:104A20001FFC300E700E381C1FF800000000000044
:104A300000000000000038003800380038003BF863
:104A40003E383C1C381C381C381C381C381C381CA0
:104A5000381C000000000000000000000000000002
:104A600000000000018003C003C0000000001FC060
:104A700001C001C001C001C001C001C001C001C02E
:104A80003FFC0000000000000000000000000000EB
:104A900000000000002000700070000000003FF0E7
:104AA0000070007000700070007000700070007086
:104AB00000700070007020E03FC0000000000000A7
:104AC0000000000000001800180018001800183C32
:104AD000187018E01B801F001B8019E01870183830
:104AE000181C000000000000000000000000000092
:104AF0000000000000001FC001C001C001C001C0D3
:104B000001C001C001C001C001C001C001C001C09D
:104B10003FFC00000000000000000000000000005A
:104B200000000000000000000000000000006F3CDA
:104B300079EE71CE718E718E718E718E718E718ED5
:104B4000718E000000000000000000000000000066
:104B500000000000000000000000000000003BF822
:104B60003E383C1C381C381C381C381C381C381C7F
:104B7000381C0000000000000000000000000000E1
:104B800000000000000000000000000000000FF026
:104B90001C3C381C700E700E700E700C381C1E7889
:104BA0000FE0000000000000000000000000000016
:104BB00000000000000000000000000000003BF8C2
:104BC0003E1C3C1C380C380C380C380C381C3C781B
:104BD0003FE03800380038003800000000000000D6
:104BE00000000000000000000000000000000FFCBA
:104BF0001C1C381C301C301C301C301C383C1CFC6D
:104C00000F9C001C001C001C001C00000000000089
:104C1000000000000000000000000000000019F883
:104C20001F1C1C0C180E1800180018001800180083
:104C3000180000000000000000000000000000005C
:104C400000000000000000000000000000000FF85D
:104C50001C0018001E000FC001F8001800181838BA
:104C60001FF0000000000000000000000000000035
:104C700000000000000000000600060006007FFCA7
:104C8000060006000600060006000600070007846E
:104C900001FC000000000000000000000000000017
:104CA0000000000000000000000000000000381CB0
:104CB000381C381C381C381C381C381C383C1CFC70
:104CC0000FDC0000000000000000000000000000F9
:104CD0000000000000000000000000000000700C58
:104CE000381C38181C380C300E70066007E003C002
:104CF00003C00000000000000000000000000000F1
:104D0000000000000000000000000000000060063D
:104D100060066186738E73CC33CC366C366C3C3C4B
:104D20003C3800000000000000000000000000000F
:104D30000000000000000000000000000000381C1F
:104D40001C380E7007E003C003C007E00E701C386B
:104D5000381E0000000000000000000000000000FD
:104D60000000000000000000000000000000700CC7
:104D7000381C38181C380C300E70066007E003C071
:104D800003C0038007000E007C000000000000004C
:104D900000000000000000000000000000001FF8FC
:104DA0000038007000E001C0038007000C001FFC09
:104DB0003FFC0000000000000000000000000000B8
:104DC00000000000007801F8038003800380038066
:104DD000038003003F003E00030003800380038044
:104DE00003800380038001C000F800000000000081
:104DF00001800180018001800180018001800180AB
:104E0000018001800180018001800180018001809A
:104E1000018001800180018001800000000000000D
:104E2000000000001E001F80018001C001C001C001
:104E300001C000C000FC007C00C001C001C001C076
:104E400001C001C001C003801F000000000000007D
:104E50000000000000000000000000000000000052
:104E600000001C003F0671CE60FC00000000000046
:104E70000000000000000000000000000000000032
:104E80000000000000000000000000000000000022
:104E90000000000000000000000000000000000012
:104EA0000000000000000000000000000000000002
:104EB00000000000000000000000000000000000F2
:104EC00000000000000000000000000000000000E2
:104ED00000000000000000000000000000000000D2
:104EE0000000000000000000000000000000003C86
:104EF00000003C00003C00003C00003C00003C0086
:104F0000003C00003C00003C00003C00003C000075
:104F10003C00003C00003C00000000000000003CA1
:104F200000007E00003C00000000000000000000C7
:104F30000000000000000000000000000000000071
:104F4000000000000000000000000000000003C39B
:104F5000E003C3E003C3C003C3C003C3C003C3C0B3
:104F600003C1C000000000000000000000000000BD
:104F70000000000000000000000000000000000031
:104F80000000000000000000000000000000000021
:104F90000000000000000000000000000000000011
:104FA0000000000000000000000000000000000001
:104FB0000000000001E0E001C0E001C0E001C0E04D
:104FC0003FFFFE3FFFFE03C1C00381C00381C0035A
:104FD00081C07FFFFC7FFFFC0783800703800703FE
:104FE0008007038007078000000000000000000029
:104FF00000000000000000000000000000000000B1
:105000000000000000000000000000000700000F8A
:1050100000000E0001FFF007FFF01F0E001E1E0033
:105020001E1C001E1C000FDC0007FC0000FF80009F
:105030003FF00038F800387800783C007078307124
:10504000F83FFFE01FFF0000E00000E00000E0008C
:105050000000000000000000000000000000000050
:1050600000000000000000000000000000000F80B1
:105070000F3FE01E78703C7070707070E07071C00F
:105080003FE3801FC700000E00001C0000780000F6
:10509000F0F001E7FC03CF0E078E0E0F0E0E1E0E72
:1050A0000E3C07BC7003F800000000000000000088
:1050B00000000000000000000000000000000000F0
:1050C00000000000000000000000000000000000E0
:1050D0000001FF0007FF800F03C00F03C00F03C0D4
:1050E0000F0780079F0003FE0003F0000FF83C3E0F
:1050F0007C3C3C1F3C780FF87807F87C01F03E03BD
:10510000F81FFFFC07FE1F00000000000000000069
:10511000000000000000000000000000000000008F
:105120000000000000000000000000000000003E41
:1051300000003C00003C00003C00003C00003C0043
:10514000003C000000000000000000000000000023
:10515000000000000000000000000000000000004F
:10516000000000000000000000000000000000003F
:10517000000000000000000000000000000000002F
:10518000000000000000000000000000008000019E
:10519000C0000780000F00001E00003C00007800E7
:1051A00000F00000E00001E00001E00001C00003A9
:1051B000C00003C00001C00001E00001E00000F0F9
:1051C0000000F000007800003C00001E00000F000E
:1051D0000007C00001C00000000000000000000047
:1051E000000000000000000000000000000003C0FC
:1051F0000001E00000F000007C00003E00001E0006
:10520000000F000007800007800003800003C0003B
:1052100003C00003C00003C0000380000780000734
:1052200080000F00001E00003C0000780000F0002D
:1052300001E000038000000000000000000000000A
:105240000000000000000000000000000000001C42
:1052500000001C000018000F18F007DBE0007F00C2
:1052600000FF0007DBE00E1870001800001C0000B3
:105270001C00000000000000000000000000000012
:10528000000000000000000000000000000000001E
:10529000000000000000000000000000000000000E
:1052A00000000000000000000000000000000000FE
:1052B00000000000000000000000000000003C00B2
:1052C000003C00003C00003C00003C00003C003F73
:1052D000FFFC3FFFFC003C00003C00003C00003CA9
:1052E00000003C0000000000000000000000000082
:1052F00000000000000000000000000000000000AE
:10530000000000000000000000000000000000009D
:10531000000000000000000000000000000000008D
:10532000000000000000000000000000000000007D
:105330000000000000000000000000007C00007E73
:1053400000007E00003E00001E00003C0000F8004F
:1053500007E0000400000000000000000000000062
:10536000000000000000000000000000000000003D
:10537000000000000000000000000000000000002D
:10538000000000000000000000000000000000031A
:10539000FFE003FFE000000000000000000000004C
:1053A00000000000000000000000000000000000FD
:1053B00000000000000000000000000000000000ED
:1053C00000000000000000000000000000000000DD
:1053D00000000000000000000000000000000000CD
:1053E00000000000000000000000000000000000BD
:1053F0000000000000000000000000007C0000FE33
:105400000000FE00007E0000000000000000000020
:10541000000000000000000000000000000000008C
:10542000000000000000000000000000000000007C
:10543000780000F00000E00001E00003C0000380FD
:10544000000780000F00000E00001E00003C00005E
:10545000380000700000F00000E00001C00003C050
:10546000000780000700000F00001E00001C000065
:10547000000000000000000000000000000000002C
:10548000000000000000000000000000000000001C
:105490000000000001FFC007FFE00F00F01E0078D1
:1054A0001E003C3C00FC3C07FC3C1FBC3C7C1C3D03
:1054B000F03C3FC03C3F003C1E00381E00780F808F
:1054C000F007FFE001FF8000000000000000000086
:1054D00000000000000000000000000000000000CC
:1054E00000000000000000000000000000000000BC
:1054F00000000000007E0003FE001FDE000E1E0004
:10550000001E00001E00001E00001E00001E000005
:105510001E00001E00001E00001E00001E00001ED7
:10552000000FFFF80FFFF80000000000000000006F
:10553000000000000000000000000000000000006B
:10554000000000000000000000000000000000005B
:105550000000000003FF800FFFE00E01F00000F0EC
:105560000000F00000F00000F00001E00003C000C7
:105570000F80003E00007C0001F00003C0000F809F
:10558000001FFFFC1FFFFC000000000000000000E7
:10559000000000000000000000000000000000000B
:1055A00000000000000000000000000000000000FB
:1055B000000000000FFF800FFFE00001E00000F09E
:1055C0000000F00001E00003C001FF0001FFC00087
:1055D00003F00000780000780000780000780001F7
:1055E000F00FFFC00FFF00000000000000000000EF
:1055F00000000000000000000000000000000000AB
:10560000000000000000000000000000000000009A
:1056100000000000000FC0001FC0003FC0007BC0A2
:1056200000F3C001E3C003C3C00783C00F03C01C65
:1056300003C03803C07FFFFE7FFFFE0003C00003EE
:10564000C00003C00003C000000000000000000014
:10565000000000000000000000000000000000004A
:10566000000000000000000000000000000000003A
:10567000000000000FFFE00FFFE00F00000F000030
:105680000F00000F00000F00000FFF800FFFE00071
:1056900000F00000780000780000780000F00003BF
:1056A000E00FFFC00FFE000000000000000000003F
:1056B00000000000000000000000000000000000EA
:1056C00000000000000000000000000000000000DA
:1056D00000000000003FF001FFF003E00007800041
:1056E0000F00001E00001E1F001FFFE01FC1F81E5C
:1056F00000781E003C1E003C1E003C0F00780F800E
:10570000F807FFE001FF800000000000000000003B
:105710000000000000000000000000000000000089
:105720000000000000000000000000000000000079
:10573000000000001FFFFC1FFFFC0000780000F0CD
:105740000000E00001E00003C0000780000F00003F
:105750000F00001E00003C0000780000F00001F087
:105760000001E00003C00000000000000000000095
:105770000000000000000000000000000000000029
:105780000000000000000000000000000000000019
:105790000000000003FFE00FE3F00F00781E007828
:1057A0001E00780F00F007E3E001FF8001FF800793
:1057B000E7E00F00F81E00781E003C1E007C1F0072
:1057C000F80FFFF003FFC000000000000000000021
:1057D00000000000000000000000000000000000C9
:1057E00000000000000000000000000000000000B9
:1057F0000000000003FF800FC7E01E00F01E0078CD
:105800003C00783C00783C00381E00780FEFF80729
:10581000FFB80000780000780000F00001E0000F01
:10582000C00FFF000FF000000000000000000000AB
:105830000000000000000000000000000000000068
:105840000000000000000000000000000000000058
:105850000000000000000000000000000000000048
:10586000007E00007E00007E0000180000000000A6
:105870000000000000000000000000003C00007E6E
:1058800000007E00003E000000000000000000005C
:105890000000000000000000000000000000000008
:1058A00000000000000000000000000000000000F8
:1058B00000000000000000000000000000000000E8
:1058C000007E00007E00007E000018000000000046
:1058D0000000000000000000000000003E00007E0C
:1058E00000007F00001F00001E00001E0000FC00E2
:1058F00007F00004000000000000000000000000AD
:105900000000000000000000000000000000000097
:10591000000000000000000000000000400001E066
:105920000007C0001F00007E0001F80003E0000F28
:1059300080000F800003E00000F800003E00000F30
:10594000800003E00000E000000000000000000014
:105950000000000000000000000000000000000047
:105960000000000000000000000000000000000037
:105970000000000000000000000000000000000027
:105980000000000000000000001FFFF80000000001
:1059900000000000001FFFF81FFFF80000000000DB
:1059A00000000000000000000000000000000000F7
:1059B00000000000000000000000000000000000E7
:1059C00000000000000000000000000000000000D7
:1059D0000000000000000000000000000007800040
:1059E00003E00000F800003E00000F800003E0002C
:1059F00000F80001F00007C0001F00007C0001F06B
:105A00000007C000030000000000000000000000CC
:105A10000000000000000000000000000000000086
:105A2000000000000000000000000000000001C0B5
:105A30000001FE00007F800007C00001E00000F0D0
:105A40000000F00001F00003E0007FC0007E0000D5
:105A5000700000700000700000000000000000F8FE
:105A60000000F80000F80000000000000000000046
:105A70000000000000000000000000000000000026
:105A80000000000000000000000000000000001FF7
:105A90008000FFF003C07807801C0E000E1C000E73
:105AA0003C000F383FC778FFC770E3C771C3C7F327
:105AB000C387E3C387E3878EE3878EE3CF8EE3FF5D
:105AC000FC71F9F07000007000003800003C00002C
:105AD0000F01C007FFC00000000000000000000030
