:020000040800F2
:1000000080050020450100087904000891030008DC
:1000100075040008E3010008ED0A00080000000074
:100020000000000000000000000000006D05000856
:10003000E701000800000000290500085906000833
:100040005F0100085F0100085F0100085F01000810
:100050005F0100085F0100085F0100085F01000800
:100060005F0100085F0100085F0100085F010008F0
:100070005F0100085F0100085F0100085F010008E0
:100080005F0100085F0100085F0100085F010008D0
:100090005F0100085F0100085F0100085F010008C0
:1000A0005F0100085F0100085F0100085F010008B0
:1000B0005F010008BD0600085F0100085F0100083D
:1000C0005F0100085F0100085F0100085F01000890
:1000D0005F0100085F0100085F0100085F01000880
:1000E0005F0100085F0100085F0100085F01000870
:1000F0005F0100085F0100085F0100085F01000860
:100100005F0100085F0100085F0100085F0100084F
:100110005F0100085F010008C50700085F010008D3
:100120005F0100085F0100085F0100085F0100082F
:10013000DFF80CD000F018F800480047110B000859
:10014000800500200648804706480047FEE7FEE796
:10015000FEE7FEE7FEE7FEE7FEE7FEE7FEE7FEE777
:100160005D06000831010008064C074D06E0E06816
:1001700040F0010394E8070098471034AC42F6D3EE
:10018000FFF7DAFF280B0008480B000870B58C1841
:1001900010F8015B15F0070301D110F8013B2A119B
:1001A00006D110F8012B03E010F8016B01F8016B88
:1001B0005B1EF9D12B0705D40023521E0DD401F884
:1001C000013BFAE710F8013BCB1A921C03E013F84D
:1001D000015B01F8015B521EF9D5A142D8D3002082
:1001E00070BD00BFFEE770472DE9F04102460025D3
:1001F0000026002000230024002791F803C00CF003
:100200000F0591F803C00CF0100CBCF1000F03D0E7
:1002100091F802C04CEA050591F800C0BCF1000F4E
:1002200031D0146800202BE04FF0010C0CFA00F3E1
:10023000B1F800C00CEA03069E4220D183004FF0C3
:100240000F0C0CFA03F7BC4305FA03FC4CEA040458
:1002500091F803C0BCF1280F06D14FF0010C0CFA45
:1002600000FCC2F814C00AE091F803C0BCF1480FCA
:1002700005D14FF0010C0CFA00FCC2F810C0401C74
:100280000828D1D31460B1F800C0BCF1FF0F34DDF1
:10029000546800202EE000F1080C4FF0010808FA25
:1002A0000CF3B1F800C00CEA03069E4221D1830092
:1002B0004FF00F0C0CFA03F7BC4305FA03FC4CEAB1
:1002C000040491F803C0BCF1280F05D100F1080C1B
:1002D00008FA0CF8C2F8148091F803C0BCF1480F7A
:1002E00007D100F1080C4FF0010808FA0CF8C2F829
:1002F0001080401C0828CED35460BDE8F081000077
:10030000F0B50A46002300240021002500F0004635
:10031000B6F1004F02D11D4EF16901E01B4E71682C
:10032000C0F3034583B200F44016B6F5401F08D170
:1003300021F07061154E766826F07066134F7E606E
:1003400012E000F48016B6F5801F06D1032606FAE7
:1003500005F4A14341F0706106E0460D360103FA51
:1003600006F6B14341F0706122B1460D360103FA41
:1003700006F6314300F00046B6F1004F02D1034EBD
:10038000F16101E0014E7160F0BD0000000001402C
:1003900000BFFEE708B50121092000F0D7F80121D0
:1003A0000848FFF7ADFF2320ADF8000003208DF8CB
:1003B000020018208DF8030069460348FFF714FF78
:1003C00008BD000000081A00000C014000B587B00D
:1003D0000121022000F0AAF80920ADF8000040F247
:1003E000FF10ADF804000020ADF80600ADF80200E3
:1003F0008DF8080069461E4800F026FB6020ADF825
:100400000C004FF48070ADF818000220ADF8140015
:100410000120ADF80E000020ADF8120008211448AC
:1004200000F05EFA03A9124800F008FA082110480B
:1004300000F0B4FA03A90E4800F060FA08210C4855
:1004400000F0F4FA03A90A4800F0B2FA01210848C2
:1004500000F0B9F90121064800F0CAF9012211465D
:10046000034800F0E2F900F008F807B000BD000012
:100470000004004000BFFEE7704708B54FF4C060BD
:1004800000F048F81D208DF8000000208DF80100D4
:1004900002208DF8020001208DF80300684600F06C
:1004A00001F808BD70B5002100230F22C47804B301
:1004B000154C246804F4E064C4F5E064210AC1F139
:1004C0000403CA40447804FA03F1847814402143B9
:1004D00009010E4C0678A155047804F01F0501248B
:1004E000AC4005786D11AD0005F1E025C5F800417F
:1004F00009E0047804F01F050124AC40044D06789F
:10050000761145F8264070BD0CED00E000E400E0F7
:1005100080E100E002490143024A11607047000097
:100520000000FA050CED00E07047000029B1064A12
:10053000D2690243044BDA6104E0034AD269824380
:10054000014BDA61704700000010024029B1064AF1
:1005500092690243044B9A6104E0034A9269824320
:10056000014B9A617047000000100240704710B5BF
:1005700000F002F810BD00000CB5002001900090C2
:100580003348006840F480303149086000BF30488B
:10059000006800F4003000900198401C0190009821
:1005A00018B90198B0F5A06FF1D12948006800F49E
:1005B000003010B10120009001E000200090009870
:1005C000012843D12348006840F010002149086009
:1005D0000846006820F0030008600846006840F004
:1005E000020008601A484068194948600846406897
:1005F00048600846406840F48060486008464068AB
:1006000020F47C1048600846406840F4E8104860D8
:100610000846006840F08070086000BF0C48006821
:1006200000F000700028F9D00948406820F003006D
:10063000074948600846406840F00200486000BF33
:100640000348406800F00C000828F9D10CBD0000F8
:1006500000100240002002407047000010B513480F
:10066000006840F0010011490860084640681049E0
:1006700008400E494860084600680E4908400B498A
:1006800008600846006820F480200860084640683A
:1006900020F4FE0048604FF41F008860FFF767FFFA
:1006A0004FF000600449086010BD000000100240D7
:1006B0000000FFF8FFFFF6FE08ED00E010B5012195
:1006C000384800F0A1F8012867D137480088401C5D
:1006D0003549088008460088FE2821DB3348008819
:1006E000401C324908800846008831490988884200
:1006F00007DB30480088401C2E49088000202B4929
:1007000008802C4800882C490988884204DB002096
:1007100028490880254908800020234908803CE0BA
:1007200026480068C0F307401F490988884208D35B
:1007300023482049098830F811001A4938310880C7
:1007400003E000201749383108801C480088C0F3B6
:10075000072015490988884208D31948154909888E
:1007600030F811000F493C31088003E000200D49AA
:100770003C310880114800780B490988884208D329
:100780000F480C49098830F81100064940310880AB
:1007900003E000200349403108800121014800F0B6
:1007A00024F810BD000400400400002000000020D8
:1007B0000800002002000020780100200C0000202A
:1007C00010000020704721B1028842F080020280B0
:1007D00004E002884FF67F731A400280704710B51C
:1007E000FFF7D8FDFFF7F2FD10BDCA430282704744
:1007F00021B1028842F00102028004E002884FF633
:10080000FE731A400280704730B502460020002374
:100810000024158A05EA0103958905EA010413B14C
:100820000CB1012000E0002030BD1AB183890B43D8
:10083000838102E083898B438381704770B50024F4
:1008400000220023058C4FF6EF7635400584028C9C
:100850008388048B48F6FF752C404FF6FF452C40EB
:100860000D884FF6FF7606EA05252C434FF6DF7517
:100870002A400D8906EA05152A434D8806EA051522
:100880002A43154DA84202D0144DA8421DD14FF65F
:100890007F752A404D894FF6FF7606EA05152A43F3
:1008A0004FF6BF752A408D8806EA05152A434FF694
:1008B000FF352B404FF2FF752B408D8906EA8505E9
:1008C0002B43CD8906EA85052B4383800483CD889D
:1008D0000587028470BD0000002C014000340140F7
:1008E0000A460021018B4FF2FF7319404FF6FF7348
:1008F00003EA0223194301837047000070B5002406
:1009000000220023058C4FF6FF6635400584028CDB
:100910008388848B4FF68F752C404FF6FC752C40E6
:100920000D882C434FF6FF552A400D894FF6FF7670
:1009300006EA05252A434D8806EA05252A43154D72
:10094000A84202D0144DA8421DD14FF2FF752A4093
:100950004D894FF6FF7606EA05252A434FF6FF3507
:100960002A408D8806EA05252A434EF6FF752B405E
:100970004DF6FF752B408D8906EA05152B43CD8971
:1009800006EA05152B4383808483CD8885870284FE
:1009900070BD0000002C0140003401400A460021D7
:1009A000818B4FF6F7731940114381837047000024
:1009B00070B5002200230024058C4EF6FF763540EA
:1009C0000584038C8488828B48F6FF752A404FF695
:1009D000FF452A400D884FF6FF7606EA05252A4393
:1009E0004DF6FF752B400D8906EA05352B434D88E2
:1009F00006EA05352B430B4DA84202D00A4DA8420A
:100A000008D14BF6FF752C408D894FF6FF7606EA2C
:100A100085152C4384808283CD88A0F840500384C0
:100A200070BD0000002C0140003401400A46002146
:100A3000818B4FF2FF7319404FF6FF7303EA0223D5
:100A40001943818370470000002202881D4B9842A1
:100A50000ED01D4B98420BD0B0F1804F08D01B4BED
:100A6000984205D01A4B984202D01A4B984204D1B2
:100A70004FF68F731A404B881A43174B984207D092
:100A8000164B984204D04FF6FF431A40CB881A43C6
:100A900002808B8883850B8803850A4B98420BD094
:100AA000094B984208D00E4B984205D00D4B984206
:100AB00002D00D4B984201D10B7A03860123838229
:100AC00070470000002C0140003401400004004049
:100AD00000080040000C00400010004000140040DE
:100AE00000400140004401400048014000BFFEE7D3
:100AF00002E008C8121F08C1002AFAD170477047E7
:100B0000002001E001C1121F002AFBD17047000044
:100B1000034804490860FFF762FE00BFFEE70000DB
:100B200000FFFF000C000020480B00080000002020
:100B30007C0100008C010008480C00087C010020AA
:100B400004040000000B00088142011BFFFF08891C
:100B500002DA02025A03025A04023A05021A060293
:100B60001A07021A08021A0902120A120B1A0C02B8
:100B7000120D120E120F121112121213121412165B
:100B800012171219121B121D121F122112241226E3
:100B90001229122C122F12331236123A123F12431C
:100BA0001248124D12531259125F1266126E1275CC
:100BB000127E12871291129C12A712B312C012CE8B
:100BC00012DD12ED12FE381210012401390150011C
:100BD000690183019F01BD01DDA71ADD0A1A9F1279
:100BE0001A691A1A39221C1001FE2E1ADD361AC093
:100BF0003E1AA7461A914E1A7E561A6E5E1A5F6604
:100C00001A536E1A48761A3F7E1A36861A2F8E1A93
:100C100029961A249E1A1FA61A1BAE1A17B61A1462
:100C2000BE1A12C61A0FCE3A0DD81A0BE229E829BD
:100C3000F029F81A06023A05025A04025A03021968
:080C400099B9029A010232B4D5
:0400000508000131BD
:00000001FF
